S02B00005241494C746573745F42524434323730425F415249425F542D3130385F74657374735F4753444B5F37
S3150800000000080020812200088D0B02088D0B0208CB
S31508000010E52502088D0B02088D0B02088D0B0208D8
S315080000208D0B02088D0B02088D0B02088D0B02083A
S315080000308D0B02088D0B02088D0B02088D0B02082A
S315080000408D0B02088D0B02088D0B02088D0B02081A
S315080000508D0B02088D0B02088D0B02088D0B02080A
S315080000608D0B02088D0B02088D0B02088D0B0208FA
S315080000708D0B0208F11F0008E11F00088D0B02080E
S315080000808D0B02088D0B02088D0B02088D0B0208DA
S315080000908D0B02088D0B02088D0B02088D0B0208CA
S315080000A08D0B02088D0B02088D0B02088D0B0208BA
S315080000B0512B00088D0B02088D0B02088D0B0208C8
S315080000C0892C0008612C00088D0B02088D0B02088C
S315080000D049D5010849E00108734802086F48020833
S315080000E07DD701087F4802087748020821E0010801
S315080000F07B480208CDE00108ADE001088D0B020837
S315080001008D0B02088D0B02088D0B02089D21020833
S315080001108D0B02088D0B02088D0B02088D0B020849
S315080001208D0B02088D0B02088D0B02088D0B020839
S315080001308D0B02088D0B02088D0B02088D0B020829
S315080001408D0B02088D0B02088D0B02088D0B020819
S315080001508D0B02088D0B02088D0B02088D0B020809
S315080001608D0B02088D0B02088D0B02088D0B0208F9
S315080001708D0B020815270208FDB901085F4402081D
S31508000180654402088D0B02088D0B02088D0B0208C8
S315080001908D0B02088D0B02088D0B02088D0B0208C9
S315080001A0834802088D0B02080000000000000000CA
S315080001B0013800D0FCE770472DE9F04F2DED028B92
S315080001C091B082460C4693461D46DDE91C2310462F
S315080001D019461EF09BFC002800F007814FF0FF32FD
S315080001E0B14BDDE91C011EF0B9FC002840F0FD808A
S315080001F04FF0FF326FF48013DDE91C011EF090FC0E
S31508000200002840F0F28000220023DDE91C011EF0E0
S3150800021087FC002840F0FE809DED1C7B8DED067B5B
S31508000220209B13F480630F9301D106231E93DDE907
S3150800023006010246C1F30A50C1F31303904643F080
S315080002407F5949F44019A0F2FF301EF08DF984A3B6
S31508000250D3E900231EF0F2F983A3D3E900231EF0A5
S3150800026037F806460F460022904B404649461EF090
S315080002702DF87FA3D3E900231EF0E0F902460B46CA
S31508000280304639461EF024F81EF072FC06461EF06B
S315080002906BF98046894678A3D3E900231EF0CEF988
S315080002A00022834B1EF014F81EF062FC074674A366
S315080002B0D3E90023404649461EF0C0F980468946E0
S315080002C038461EF051F970A3D3E900231EF0B6F99B
S315080002D002460B46404649461DF0F8FF80468946C9
S315080002E002460B461EF0AAF9CDE90A0107F2FF37C6
S315080002F000210022CDE908123B0509930023089343
S3150800030042464B46404649461DF0E2FFCDE90C0100
S3150800031042464B4600204FF080411DF0D7FF8046ED
S3150800032089460022634BDDE90A011EF0B1FA002274
S31508000330614B1DF0CDFF02460B46DDE90A011EF0B2
S31508000340A7FA00225D4B1DF0C3FF02460B46DDE906
S315080003500A011EF09DFA02460B46404649461DF024
S31508000360B7FF02460B46DDE90C011EF091FA0022A2
S31508000370534B1DF0ADFFDDE908231EF05FF98046FB
S31508000380894649EC188BDDE906231EF0E7FB40B1E8
S31508000390013E0022484B404649461EF079FA41EC98
S315080003A0180B06F16303C62B3FD80427209B13F4CA
S315080003B0006F44D036A3D3E90023DDE90689404619
S315080003C049461EF0C1FB00283FD033A3D3E90023DA
S315080003D0404649461EF0A4FB002836D01E9BB34271
S315080003E025DD9E1B731E1E9323E0209B04931F9BF3
S315080003F003931E9B02939DED1C7B8DED007B2B4684
S315080004005A462146504600F0CFF811B0BDEC028B93
S31508000410BDE8F08F9FED227B8DED067B1C9B069336
S315080004201D9B03F100430793FAE60527BEE7002361
S315080004301E93209B43F48063209300273E461F9B10
S315080004409F423FD2A3EB07083EE01E9B002BF6D047
S315080004500F9B002BF3D01E9B013B1E93EFE700BFBB
S31508000460FB799F501344D33FB3C8608B288AC63F95
S3150800047061436F63A787D23F71A379094F930A40F7
S315080004801655B5BBB16B0240EF39FAFE422EE63F70
S315080004902D431CEBE2361A3F0000000080842E41F3
S315080004A00000000000000000FFFFEF7F0000F83F9B
S315080004B00000E03F00002C400000244000001840E7
S315080004C00000F03F4FF00008209B13F0020902D00D
S315080004D00FB14FF000083EB153EC182BDDE90601C9
S315080004E01EF0D6F9CDE9060100220023DDE91C013C
S315080004F01EF016FB00283DD1209B23F400630493CD
S31508000500CDF80C801E9B02939DED067B8DED007B3E
S315080005102B465A462146504600F046F8002F3FF42F
S3150800052074AF209B13F0200F2CD04FF0450C00F130
S3150800053001082B46024621466046D04786EAE673FE
S31508000540A3EBE67305220592013F04970022039266
S315080005500A220292F00F019000932B46424621464A
S31508000560504622F0D3FAB9F1000F3FF44EAF0246D7
S315080005701F9F10E0DDE90601024601F10043CDE9BF
S315080005800623B9E74FF0650CD1E7561C2B462146E2
S315080005902020D0473246A2EB0B03BB42F5D31046C8
S315080005A033E700BF000000002DE9F04F2DED028B68
S315080005B095B007900A9192469B46DDE92089229DCF
S315080005C042464B46404649461EF0A0FA002840D00F
S315080005D04FF0FF326FF48013404649461EF0A0FAEA
S315080005E0002845D14FF0FF329F4B404649461EF042
S315080005F0B5FA00284BD198A3D3E9002340464946CB
S315080006001EF0ACFA00285AD195A3D3E90023404638
S3150800061049461EF085FA002851D10022002340469B
S3150800062049461EF07DFA002857D100230B93249BD8
S3150800063013F4806F5CD000241F2C5BD8092D59D980
S3150800064004F150036B44302203F8202C013D013499
S31508000650F2E7249B0393239B029303230193834B83
S3150800066000935B4652460A99079822F074F92CE1E2
S31508000670249B0393239B0293042301937C4B0093AF
S315080006805B4652460A99079822F065F91DE1249BB4
S3150800069013F004030FD0774A7BB1042324990391FE
S315080006A023990291019300925B4652460A9907984C
S315080006B022F051F909E1704AEEE70323EEE7249B9D
S315080006C00493239B03930295CDE900895B46524622
S315080006D00A990798FFF770FDF7E042464B46002057
S315080006E000211DF0F3FD8046894601230B939EE702
S315080006F00625A0E7404649461EF03AFA06461DF08A
S3150800070033FF02460B46404649461DF0DFFD5B4B6C
S3150800071003EBC50393ED008B53EC182B1DF08EFFEE
S3150800072002460B46CDE908231EF04AFA07461DF095
S315080007300BFF02460B46DDE908011DF0C7FD024620
S315080007400B46CDE9082300224D4B1EF007FA50B39D
S31508000750013738461DF0F8FE02460B4651EC180BD9
S315080007601EF0E8F908B10136002755BB30461DF0E2
S31508000770FBFE02460B46404649461DF0A7FD0746C6
S31508000780884600223E4B1EF0CBF938B100223C4B7E
S31508000790384641461EF0E2F9002842D016F0010F0D
S315080007A03FD001363DE00022354BDDE908011EF059
S315080007B0B7F90028D9D117B117F0010FD5D00137ED
S315080007C0D3E71F2C17D8013D2E4BA3FB0723DB08C5
S315080007D0194603EB8303A7EB4303621C303304F18A
S315080007E050000DEB000404F8203C092F02D90F46EF
S315080007F01446E6E714461F2C0AD86B1E45B104F1C9
S3150800080050026A44302102F8201C1D460134F2E7E2
S315080008101F2C06D804F150036B442E2203F8202C13
S3150800082001341F2C33D8184A82FB0632F317C3EB60
S31508000830A2031A4603EB8303A6EB4303611C30337A
S3150800084004F150000DEB000404F8203C1646EAB10A
S315080008500C46E6E7AFF300800000000065CDCD4109
S315080008600000000065CDCDC1FFFFEF7F408A030879
S31508000870448A0308388A0308348A0308508A030816
S315080008800000E03FCDCCCCCC676666660C46249B60
S3150800089003F00303012B1DD01F2C09D80B9B002B3B
S315080008A035D004F150036B442D2203F8202C013473
S315080008B0249B0393239B029301940CAB00935B4602
S315080008C052460A99079822F046F815B0BDEC028BF5
S315080008D0BDE8F08F239BB3B10B9B1BB9249B13F088
S315080008E00C0F12D0239B013B2393194606E004F113
S315080008F050036B44302203F8202C01348C42CBD2AF
S315080009001F2CF4D9C8E72399F8E72399F6E7249B1F
S3150800091013F0040F07D004F150036B442B2203F89D
S31508000920202C0134C4E7249B13F0080FC0D004F12F
S3150800093050036B44202203F8202C0134B8E700BF8B
S3150800094038B508462DED028B15461DF0FDFD1FA393
S31508000950D3E900231DF09CFF02460B4643EC182BF7
S31508000960002200231EF0E6F8044648BBB0EE480A0B
S31508000970F0EE680A00F0A4F816A3D3E9002351ECB8
S31508000980100B1DF0A5FC02460B4614A1D1E9000187
S315080009901DF07EFF13A3D3E900231DF097FC002268
S315080009A0094B1DF04BFE41EC100B1FF039FE51ECC4
S315080009B0100B1EF0DDF828802046BDEC028B38BDF2
S315080009C00120FAE7AFF30080000020400000000095
S315080009D0006AF8409679D0187A2C2C40000000005E
S315080009E00068B040666666666612714000000000E0
S315080009F02DE9F047084692461DF0B6FD00222E4B1B
S31508000A001DF064FC04460D469FED211B45EC104B7A
S31508000A1000F09AF822462B462046294659EC108BB8
S31508000A201DF00CFE1CA3D3E900231DF007FE1CA332
S31508000A30D3E9002306460F46404649461DF0FEFD0B
S31508000A4002460B46304639461DF042FC16A3D3E94A
S31508000A50002306460F46204629461DF0EFFD0246AE
S31508000A600B46304639461DF031FC11A3D3E9002365
S31508000A701DF02CFC41EC100B1FF0D2FD51EC100BB5
S31508000A801EF076F88AF800000020BDE8F08700BF5F
S31508000A9000000000000008402D431CEBE2361A3F18
S31508000AA0BC79AA436E861B3FAE47E17A14AEE73F90
S31508000AB0666666666666D63F00003E400000000031
S31508000AC038B555EC104B2DED028B00F0B5F82246E3
S31508000AD02B4620462946B0EE408AF0EE608A1FF083
S31508000AE005FF98B900220023204629461EF036F84D
S31508000AF060B900220023204629461EF007F860B197
S31508000B001EF00AFF22239FED0C8B0360B0EE480A05
S31508000B10F0EE680ABDEC028B38BD1EF0FDFE212200
S31508000B2003460748BDEC028B1A60BDE8384001F061
S31508000B3043B800BFAFF30080000000000000F0FFDC
S31508000B406C89030800000000F8B555EC114B2DED33
S31508000B50028B57EC106B00F087FA22462B4620468C
S31508000B602946B0EE408AF0EE608A1FF0BFFE78B9DB
S31508000B7000220023304639461DF0C8FFF0B1002296
S31508000B800023204629461DF0C1FF40B19FED288B62
S31508000B90B0EE480AF0EE680ABDEC028BF8BD45ECEB
S31508000BA0104B1FF095FE0028F2D020462946002259
S31508000BB000231DF0B5FF0028EAD02EE0B0EE480A63
S31508000BC0F0EE680A1FF084FEA0B10022002351EC63
S31508000BD0180B1DF09BFF0028DAD047EC106B1FF0AE
S31508000BE077FE0028D4D045EC104B1FF071FE002884
S31508000BF0CED012E047EC106B1FF06AFE0028E4D056
S31508000C0045EC104B1FF064FE0028DED053EC182B81
S31508000C1051EC180B1FF06AFE20B91EF07DFE222348
S31508000C200360B5E71EF078FE21230360B0E700BF36
S31508000C30000000000000F03F51EC100BB1F5801FDA
S31508000C402DE9F04F0F462DED028B85B054DA21F0D1
S31508000C50004310EE102A034300F0F4800029C0F286
S31508000C6034810022DC4B1DF0E9FCDC4A0F466FF0AC
S31508000C703504974244DC3B15C7F31307D84AA3F259
S31508000C80FF36D84B3B44264403F480135A4006EB00
S31508000C901356D34B42EA070100221DF017FBBB1C73
S31508000CA082468B46C3F31303022B34DC002200234F
S31508000CB01DF02CFF002800F0D280002E00F05C8189
S31508000CC030461DF051FC06460F46ADA3D3E9002376
S31508000CD01DF0B4FC04460D4630463946AAA3D3E9AE
S31508000CE000231DF0ABFC02460B46204629461DF0A4
S31508000CF0EFFA41EC100B09E0B84A00249742BADD36
S31508000D0002460B461DF0E4FA41EC100B05B0BDECAB
S31508000D10028BBDE8F08FB44B0022FB1801934FF00D
S31508000D2080431DF0D5FA02460B46504659461DF03B
S31508000D30AFFD41EC180B30461DF016FC53EC182B92
S31508000D40CDE9020151EC180B1DF078FC02460B4662
S31508000D50804689461DF072FC04460D468CA3D3E9ED
S31508000D6000231DF06BFC8CA3D3E900231DF0B0FA19
S31508000D7022462B461DF062FC89A3D3E900231DF009
S31508000D80A7FA22462B461DF059FC87A3D3E9002370
S31508000D901DF09EFA42464B461DF050FC8046894699
S31508000DA02046294682A3D3E900231DF047FC82A3E7
S31508000DB0D3E900231DF08CFA22462B461DF03EFC93
S31508000DC07FA3D3E900231DF083FA22462B461DF0A4
S31508000DD035FC0B460246494640461DF079FA834BD8
S31508000DE089460199DB1B80460B43002B5FDD0022F9
S31508000DF07F4B504659461DF021FC52465B461DF076
S31508000E001DFC04460D46002E69D122462B46404657
S31508000E1049461DF05DFA53EC182B1DF00FFC0246EF
S31508000E200B46204629461DF051FA02460B46504607
S31508000E3059461DF04BFA41EC100B05B0BDEC028B80
S31508000E40BDE8F08F0022002300206A491DF020FD2E
S31508000E5041EC100B05B0BDEC028BBDE8F08F5AA330
S31508000E60D3E90023504659461DF0E8FB02460B46D7
S31508000E7000205F491DF02AFA04460D4652465B4695
S31508000E80504659461DF0DAFB02460B4620462946CF
S31508000E901DF0D4FB04460D46002E59D102460B46DA
S31508000EA0504659461DF012FA41EC100B2EE7002E5B
S31508000EB040F0A28042464B46504659461DF006FA77
S31508000EC053EC182B1DF0BAFBAFE70B461DF0FEF9E5
S31508000ED0002200231DF0DCFC41EC100B16E728A3CA
S31508000EE0D3E90023DDE902011DF0A8FB22462B46C3
S31508000EF006460F46404649461DF0EAF953EC182BBC
S31508000F001DF09CFB804689461FA3D3E90023DDE933
S31508000F1002011DF093FB02460B46404649461DF06A
S31508000F20D7F902460B46204629461DF0CFF9524608
S31508000F305B461DF0CBF902460B46304639461DF096
S31508000F40C5F941EC100B05B0BDEC028BBDE8F08F7E
S31508000F5030461DF009FB8046894609A3D3E90023DC
S31508000F601DF06CFB06460F464046494606A3D3E9E4
S31508000F7000231DF063FBD4E79FED150BC6E600BF03
S31508000F800000E0FE422EE63F763C7935EF39EA3D31
S31508000F9044523EDF12F1C23FDE03CB966446C73F9A
S31508000FA0599322942449D23F935555555555E53FB3
S31508000FB09FC678D0099AC33FAF788E1DC571CC3FBE
S31508000FC004FA97999999D93F555555555555D53F89
S31508000FD0000000000000000000005043FFFFEF7F04
S31508000FE00000F03F645F090086EBF9FF51B8060080
S31508000FF00000E03F000050C317A3D3E90023DDE952
S3150800100002011DF01BFB42464B4604460D46504660
S3150800101059461DF05BF953EC182B1DF00FFB0646DD
S315080010200F460FA3D3E90023DDE902011DF006FBF5
S3150800103002460B46304639461DF048F952465B468D
S315080010401DF044F902460B46204629461DF03EF996
S3150800105041EC100B5AE600BF0000E0FE422EE63FC8
S31508001060763C7935EF39EA3D2DE9F04F55EC114BD1
S3150800107025F0004A5AEA04012DED0C8B57EC106B4B
S3150800108087B029D1B31987F400226548524199429D
S3150800109070EB020319D222462B46304639461DF01C
S315080010A017F941EC100B07B0BDEC0C8BBDE8F08FBF
S315080010B05C4B43441A43EED1231985F40021584862
S315080010C049419A4270EB0103E5D39FED530B07B0F4
S315080010D0BDEC0C8BBDE8F08F534927F00049B846A4
S315080010E010EE102A8945E3DCAB4611EE103A01D121
S315080010F0002ED0D14C498A45DADC01D1002BD7D154
S31508001100B8F1000F43DB0021009183B9464B9A459D
S3150800111059D0464B9A4569D0BBF1804F00F0B88448
S31508001120434B9B4503D1B8F1000F80F20885029224
S3150800113047EC106B1FF0C2FB029A4AB928F04043ED
S315080011403A4A934200F0A783B9F1000F00F0A3834F
S315080011504FEAD873009A013B049313434DD0354B9D
S315080011609A456DDD03F104739A45334B40F32284A7
S31508001170994540F39784BBF1000F40F3978400200C
S3150800118007B0BDEC0C8BBDE8F04F1FF08DBB2B49AB
S315080011908A4528DCA1F154718A45B4DD4FEA2A5103
S315080011A0A1F2FF31142940F38384C1F1340123FAF3
S315080011B001F000FA01F19942A5D100F00100C0F151
S315080011C002010091A1E7174B4B4413433FF47DAF4F
S315080011D0194B994540F3A483BBF1000FC0F28A84EA
S315080011E045EC104B5FE7022100918EE7BBF1000F3B
S315080011F0C0F2448447EC106B55E732463B4610462E
S3150800120019461DF063F802460B461DF041FB41ECFA
S31508001210100B48E7AFF30080000000000000F03F25
S315080012200000F0FF000010C00000F07F0000F03F53
S315080012300000E03F0000E041FFFFEF3FFFFF3F43B4
S31508001240E34B002208EA030353B9E24B51EC100BB7
S315080012501DF0F4F96FF0340241EC100B10EE909A81
S315080012604FEA2953C9F31309DB4EA3F2FF3349EAC0
S3150800127006069A18D94B9945059207DDD84B994524
S3150800128040F324840132A6F58016059200279FEDC7
S31508001290B87B9FEDB96BB0EE47DAF0EE67DAB0EEE1
S315080012A047CAF0EE67CA51EC160B53EC102B3346BF
S315080012B0761043EC192B41EC1A0B02460B4646F006
S315080012C0005651EC190B1DF001F88046894653EC7F
S315080012D01A2B51EC190B1CF0FBFF02460B4600209B
S315080012E0BD491DF0D5FA41EC1B0B53EC1B2B4046B0
S315080012F049461DF0A3F90A4606F5002341EC180BEA
S3150800130001460020CDE90212002106460246029156
S31508001310D919DDE902AB0F460B46504659461DF072
S315080013208DF902460B46404649461CF0CFFF8046DB
S3150800133089463046394653EC1A2B1CF0C7FF02463D
S315080013400B4651EC190B1CF0C1FF52465B461DF0CB
S3150800135075F902460B46404649461CF0B7FF53EC62
S315080013601B2B1DF06BF953EC182B41EC190B51ECA8
S31508001370180B1DF063F906460F4681A3D3E900232F
S315080013801DF05CF980A3D3E900231CF0A1FF3246C7
S315080013903B461DF053F97EA3D3E900231CF098FFC2
S315080013A032463B461DF04AF97BA3D3E900231CF0DD
S315080013B08FFF32463B461DF041F979A3D3E9002356
S315080013C01CF086FF32463B461DF038F976A3D3E972
S315080013D000231CF07DFF8046894632463B46304650
S315080013E039461DF02BF902460B46404649461DF084
S315080013F025F9524606460F465B4651EC180B1CF07B
S3150800140067FF53EC192B1DF019F932463B460026A7
S315080014101CF05EFF5246804689465B465046594652
S315080014201DF00CF902460B4643EC1A2B00226D4BB5
S315080014301CF04EFF42464B461CF04AFF0F4632460A
S3150800144050463B4659461DF0F9F8002282468B461F
S31508001450644B304639461CF039FF53EC1A2B1CF006
S3150800146035FF02460B46404649461CF02FFF53EC13
S31508001470182B1DF0E3F88046894632463B4651EC68
S31508001480190B1DF0DBF802460B46404649461CF090
S315080014901FFF804689465046424659464B461CF031
S315080014A017FF0F46304642A3D3E900231DF0C6F8BE
S315080014B052465B4641EC190B304639461CF006FF8E
S315080014C002460B46404649461CF000FF3AA3D3E9BC
S315080014D000231DF0B3F8804689463046394638A3BE
S315080014E0D3E900231DF0AAF802460B4640464946B2
S315080014F01CF0EEFE53EC1C2B1CF0EAFE06460F46CB
S3150800150005981DF031F83246804689463B4651EC2F
S31508001510190B1CF0DDFE53EC1D2B1CF0D9FE4246C0
S315080015204B461CF0D5FE002042464B4682468B466B
S315080015301CF0CCFE53EC1D2B1CF0C8FE53EC192BEB
S315080015401CF0C4FE02460B46304639461CF0BEFE69
S31508001550009B049A013B134341EC180B40F0D981D8
S315080015609FED197BB0EE479AF0EE679A3CE000BF14
S315080015700000000000000000000000000000F03F2E
S31508001580EF4E454A287ECA3F65DBC9934A86CD3F5A
S3150800159001411DA96074D13F4D268F515555D53F40
S315080015A0FFAB6FDBB66DDB3F033333333333E33FD8
S315080015B0000000E009C7EE3FFD033ADC09C7EE3F2D
S315080015C0F5015B14E02F3EBE000000000000F0BFEE
S315080015D00000F07F000040430000F03F8E980300B3
S315080015E079B60B0000000840002320462946CDE9BD
S315080015F000450093DDE9008942464B461CF066FE2D
S3150800160052465B461DF01AF806460F4622462B46FA
S3150800161051EC180B1DF012F802460B4630463946B7
S315080016201CF056FE42464B4606460F46504659465D
S315080016301DF004F804460D463046394622462B4628
S315080016401CF046FED44B8046894699428A4640F3AA
S315080016503A81D24B0B44034340F058823046394610
S31508001660B7A3D3E900231CF033FE22462B4641ECF0
S31508001670180B404649461CF029FE02460B4651EC1B
S31508001680180B1DF06BFA002840F04082CAF30A5383
S315080016904FF48012A3F2FE33C149002042FA03F345
S315080016A0BAF1000F5344C3F30A52A2F2FF3241FAC9
S315080016B002FCC3F31301C2F1140241F4801141FA8A
S315080016C002F223EA0C0100920B46024602DA00995E
S315080016D049420091204629461CF0F8FD009B024627
S315080016E004461B050D46304602930B4639461CF048
S315080016F0EFFD89464FF00008494693A3D3E9002336
S3150800170040461CF09BFF224682468B462B464046A7
S3150800171049461CF0DBFD02460B46304639461CF0AE
S31508001720D5FD8BA3D3E900231CF088FF04460D469C
S315080017304046494688A3D3E900231CF07FFF0246AA
S315080017400B46204629461CF0C3FD06460F46504662
S31508001750324659463B461CF0BBFD524604460D46EA
S315080017605B461CF0B3FD02460B46304639461CF074
S31508001770ADFD224682468B462B46204629461CF05E
S315080017805DFF06460F4676A3D3E900231CF056FFF5
S3150800179075A3D3E900231CF099FD32463B461CF09D
S315080017A04DFF73A3D3E900231CF092FD32463B4656
S315080017B01CF044FF70A3D3E900231CF087FD3246D2
S315080017C03B461CF03BFF6EA3D3E900231CF080FDCB
S315080017D032463B461CF032FF02460B462046294657
S315080017E01CF074FD06460F462046324629463B46FF
S315080017F01CF024FF804689463046394600224FF0C1
S3150800180080431CF063FD02460B46404649461DF0E0
S315080018103FF8524606460F465B46204629461CF0C8
S315080018200DFF52465B461CF053FD02460B463046FA
S3150800183039461CF04BFD22462B461CF047FD024656
S315080018400B46002057491CF041FD0C460B460299F1
S3150800185002460C44B4F5801FC0F25081104621465A
S3150800186053EC192B1CF0EAFE41EC100B1BE447EC79
S31508001870106B00921FF022F8009A002A7FF4BDAC84
S3150800188028F04043474A934203D0B9F1000F7FF44A
S31508001890B4AC00230093BBF1000F07DA00204149DE
S315080018A053EC102B1CF0F4FF41EC100BB8F1000FB1
S315080018B0BFF6F9AB3C4B009A4B44134340F03181D9
S315080018C053EC102B9BE421F00043DFF8E4C063459A
S315080018D040F3CC80354B0B4403430AD122462B46B2
S315080018E01CF0F4FC32463B461DF02EF900283FF466
S315080018F0CDAE0022002351EC190B1DF011F900386A
S3150800190018BF012007B0BDEC0C8BBDE8F04F1EF0E8
S31508001910C1BF9FED1D7BB0EE479AF0EE679A63E66E
S31508001920BBF1000F9FED1A0BBFF6BDAB05F10043E7
S3150800193000EE104A00EE903AFFF7B5BBAFF3008011
S31508001940FE822B654715973C00000000432EE63FB4
S31508001950EF39FAFE422EE63F396CA80C615C20BED0
S31508001960D0A4BE726937663EF16BD2C541BDBB3E97
S315080019702CDE25AF6A56113F93BDBE166CC1663F75
S315080019803E5555555555C53F000000000000F03F2F
S315080019900000000000000000FFFF8F40000070BF3D
S315080019A0FFFF0F000000F03F000010C000346F3F3B
S315080019B0FFCB9040994575DB7B4B99453FF7DBABF1
S315080019C00022794B51EC100B1CF080FC06460F46A2
S315080019D065A3D3E900231CF031FE82468B463046C8
S315080019E0394663A3D3E900231CF028FE00226F4B77
S315080019F041EC180B304639461CF020FE02460B46D1
S31508001A005DA1D1E900011CF061FC32463B461CF0A1
S31508001A1015FE02460B46002065491CF057FC804619
S31508001A20894632463B46304639461CF007FE024692
S31508001A300B46404649461CF001FE51A3D3E9002354
S31508001A401CF0FCFD02460B4651EC180B1CF03EFC44
S31508001A5006460F465046594632463B461CF038FC69
S31508001A60002052465B4682468B4669E5504A9342B9
S31508001A7075DCDDE90012029100913BE600204A4937
S31508001A8032463B461CF004FF41EC100BFFF70BBB3C
S31508001A9032463B46304639461CF0D0FD41EC100B29
S31508001AA0FFF701BBBBF1000FFFF669AB002029E782
S31508001AB0002B7FF4DCAEC1F114014AFA01F000FAFA
S31508001AC001F1514544D00093FFF723BB9FED2E7BD0
S31508001AD04FF48027B0EE47DAF0EE67DA9FED2C7BFD
S31508001AE0B0EE47CAF0EE67CA9FED2B7B51EC170B99
S31508001AF0FFF7DBBB9FED2A0BFFF7D5BA009843EC3F
S31508001B00102B00F061F851EC100BA9E60022002317
S31508001B1051EC190B1DF004F8003818BF0120FFF727
S31508001B202FBB009B012B7FF4BEAA10EE901A10EE75
S31508001B30102A01F1004343EC102BFFF7B4BA47EC27
S31508001B40106B07B0BDEC0C8BBDE8F04F1EF0BCBDAA
S31508001B5000F00100C0F102030093FFF7DABA1B1583
S31508001B6096E500BFAFF30080000000604715F73F19
S31508001B7044DF5DF80BAE543E555555555555D53F82
S31508001B80FE822B654715F73F0000004003B8E23F89
S31508001B9006D0CF43EBFD4C3E000000000000F83FA6
S31508001BA000000000000000000000F03F0000D03FE9
S31508001BB00000E03F000000009FED010B704700BFEA
S31508001BC0000000000000F87F38B553EC102BC3F373
S31508001BD00A519C46044689BB23F0004C10EE101AA5
S31508001BE05CEA010129D03E4D194600223D4B10EE14
S31508001BF0100A1CF023FDAC4202460B4616DB8C4647
S31508001C00C1F30A513639214440F2FE70814221DC83
S31508001C10002947DC11F1350F34DA4CF250318C4289
S31508001C2018DC002B26A1D1E9000143DB24A3D3E964
S31508001C3000231CF003FD41EC100B38BD40F2FF7E7B
S31508001C407145E0D110EE100A19461CF041FB41EC33
S31508001C50100B38BD002B1CA1D1E9000107DB1AA324
S31508001C60D3E900231CF0EAFC41EC100B38BD18A19F
S31508001C70D1E9000114A3D3E900231CF0DFFC41ECF1
S31508001C80100BF3E7184836311446184B0CEA0000D7
S31508001C90002240EA0155204629461CF0CFFC41ECBB
S31508001CA0100B38BD10480CEA000040EA015343EC1B
S31508001CB0102B38BD08A1D1E90001B7E7AFF30080C2
S31508001CC059F3F8C21F6EA5019C7500883CE4377E5F
S31508001CD09C7500883CE437FE59F3F8C21F6EA5814F
S31508001CE0B03CFFFF00005043FFFF0F800000903C10
S31508001CF010B5054C237833B9044B13B1044800E0FA
S31508001D0000BF0123237010BDF0160020000000005C
S31508001D10D406050808B5034B1BB10349034800E080
S31508001D2000BF08BD00000000F4160020D406050810
S31508001D30A3F5803A704700BF174B002B08BF134B1B
S31508001D409D46FFF7F5FF00218B460F461348144AB8
S31508001D50121A22F0E3FD0E4B002B00D098470D4BCC
S31508001D60002B00D098470020002104000D000D48E4
S31508001D70002802D00C4800E000BF1DF097F92000AB
S31508001D8029001EF0CBFD1DF06BF900BF000008000E
S31508001D900000000000000000000800207413002066
S31508001DA0449C0020000000000000000000B585B03B
S31508001DB0094B1868094B1860094B0A4A13600A4A06
S31508001DC001920A4A12680292039301A91FF0A9FC1C
S31508001DD005B05DF804FB00BFEC080020C86E0020C3
S31508001DE0E0080020C46E002004100308F008002054
S31508001DF008B5024B18681FF0ACFC08BDEC080020BB
S31508001E0038B50EF03FFF0446064D2B68D3F8B002EE
S31508001E100EF02CFF28681FF0B9FC20460EF026FFAE
S31508001E2038BD00BFEC080020044B1B68834202D073
S31508001E30034B186870470148704700BFF019002027
S31508001E40EC19002008B50948094B1860094B1B68AE
S31508001E5003600A23C360084B4361084B8360084B41
S31508001E6043600023037620F08FF908BDF01900209F
S31508001E70EC190020EC080020101A0020181003089E
S31508001E802410030808B501F07BFB1FF059F9264A10
S31508001E90136F23F0070343F0030313671FF056F984
S31508001EA0224B9B6A13F0807F03D1214B4FF480327B
S31508001EB09A621D4BD3F8202122F0070242F0020253
S31508001EC0C3F82021D3F8282122F0070242F00202A3
S31508001ED0C3F82821D3F8402122F0030242F0020277
S31508001EE0C3F84021D3F8602122F0030242F002022F
S31508001EF0C3F86021D3F8402222F0030242F002021E
S31508001F00C3F84022D3F8002222F0070242F0020268
S31508001F10C3F80022D3F8082222F0070242F0020290
S31508001F20C3F80822002008BD008000500040005A6F
S31508001F300060005A30B5A1B0244C0DF1600CA646DD
S31508001F40BEE80F00ACE80F009EE80F008CE80F0013
S31508001F50302200210DEB020022F0E0FC1C4B0C9312
S31508001F6001258DF8355056230E930823119309231E
S31508001F7013930A2315930DF1240E04F1200393E815
S31508001F8007008EE807000DF1080C0023029303935F
S31508001F90049305930693079308938CE807000D238B
S31508001FA08DF814300E238DF815300A4B069320232E
S31508001FB007938DF82050084B00930CAB18AA61467E
S31508001FC006480EF0C9FE21B030BD00BF3410030824
S31508001FD00000015B8C1F0020101F0020AC1F002092
S31508001FE008B5024820F03DF908BD00BFAC1F002027
S31508001FF008B5024820F035F908BD00BFAC1F00201F
S3150800200008B5024B1A6A1868904708BDAC1F00202D
S3150800201008B5024B5A6A1868904708BDAC1F0020DD
S3150800202010B58AB000230693079308930993254BA6
S315080020300693254906A811F01FF9244B186030B1FC
S315080020400023059305A921F0EEF908B1FEE7FEE79E
S315080020501E4C1F4A1F4B1968206811F0D3FC00213B
S3150800206020681FF01BFB00B1FEE71B49174B1868D9
S3150800207011F026FD00B1FEE7184A40F23F23CDE9EC
S3150800208000234FF0FF324FF0FF331049086820F065
S315080020903EFF00B1FEE7124B1B88ADF81030ADF8D5
S315080020A00C3004A9094B186820F00EFF00B1FEE7B2
S315080020B003A9064B186820F01FFF00B1FEE70AB017
S315080020C010BD00BF770A02085B0A0208F408002060
S315080020D0630A0208B008002007001100EFFFF3FFAB
S315080020E06010030882B0054B019302AB03EB800036
S315080020F050F8043C186802B0704700BFF408002086
S3150800210000B583B002218DF80010002205481EF0A4
S31508002110E7FC0190082168461EF0EEFC03B05DF866
S3150800212004FB00BF006A1800024B0822C3F8A0206F
S31508002130704700BF00E00350024B0822C3F8A020F6
S31508002140704700BF00D003502DE9F0418EB0484CCF
S3150800215009AD26460FCE0FC533682B600DF1040C6A
S3150800216014340FCCACE80F0094E80F008CE80F008D
S3150800217001213A2001F06CF80121572001F068F896
S3150800218001258DF8095000248DF80840394B0B932A
S3150800219001AB0D93DFF8E48009A940461FF053F818
S315080021A02B4604222146022002F0CAF923462A4673
S315080021B02946022002F0C4F92B46042202210846C9
S315080021C002F0BEF92B4604220321022002F0B8F9D8
S315080021D0294E4FF00213C6F8C833A3F58033C6F864
S315080021E0C4330227C6F8CC731C23C6F8B4334FF49D
S315080021F0487010F0DFF9FFF797FF142010F0DAF9AE
S31508002200FFF79AFF232010F0D5F9FFF78DFFB921C4
S3150800221040461FF000F8FFF78FFF23462246214667
S31508002220384602F08DF9234622462946384602F0FA
S3150800223087F92B4622463946384602F081F92B465D
S3150800224022460321384602F07BF9404601F016FD86
S31508002250C6F8C843C6F8C443C6F8CC43C6F8B44360
S315080022602146572000F0F4FF0EB0BDE8F08100BF0C
S3150800227064100308E070720000C0035000000A50A2
S3150800228008B500F02DF8124A0AE01068516850F8AF
S31508002290230041F82300013391688B42F5D30C32B1
S315080022A00C4B9A4201D20023F6E70B4A08E0116864
S315080022B0002041F82300013351688B42F7D30832D6
S315080022C0064B9A4201D20023F6E7FFF735FD00BF19
S315080022D0DC060508E8060508E8060508E806050810
S315080022E010B4144B144A9A60D3F8882042F470024A
S315080022F0C3F88820114A4FF480419166104901F5C8
S3150800230000524FF0FF3010660E4850660220C3F8A0
S31508002310D000BFF34F8FBFF36F8F0B480124C0F86F
S3150800232080414FF44033D36004600B615DF8044B81
S31508002330704700BF00ED00E0000000080090005064
S3150800234000800044FFF7FF2F00E100E0014B18680A
S31508002350704700BFFC0800200048704700E1F505FB
S31508002360014B1868704700BF0009002000487047F5
S31508002370002D31014FF0B4439868C0F304400C288F
S3150800238008D8DFE800F009070707070722181A0721
S315080023901C1E2000002070474FF0B4439B6803F0D2
S315080023A04073B3F1807F12D0B3F1007F11D003B12F
S315080023B070470948704709487047094870470948EF
S315080023C070470948704709487047094870470948DF
S315080023D070470948ECE700BF00093D000024F400F7
S315080023E0C0EA210180BA8C010048E801005A62025D
S315080023F0405DC60080841E0040420F00014B1868ED
S31508002400704700BF04090020014B1868704700BFD9
S315080024100809002008B50C4B1B6F03F00703013BA6
S31508002420042B0DD8DFE803F00D03060C0900FFF7AF
S315080024308DFF07E0054B186804E0FFF7E5FF01E0AC
S31508002440FEE7034808BD00BF0080005000090020D1
S31508002450002D310108B5FFF7DDFF054B1B6FC3F3F0
S3150800246003330133B0FBF3F0024B186008BD00BF1D
S3150800247000800050F808002008B5064B1860064B87
S315080024801B6F03F00703032B00D008BDFFF7E2FF1D
S31508002490FBE700BF000900200080005008B5064B86
S315080024A01860064B1B6F03F00703052B00D008BD09
S315080024B0FFF7D0FFFBE700BF0809002000800050A7
S315080024C0F0B18446F1B110B409E004F120030FE03D
S315080024D02030181A18D1BCB10CF1010C01319CF846
S315080024E000400B4BE35C03F00303012BEDD02346BE
S315080024F00878074A825C02F00302012AE9D1E7E775
S3150800250001207047012070475DF8044B704700BFF3
S31508002510650405080346064A10680344054A9342BB
S3150800252002D8034A136070474FF0FF30704700BF68
S315080025300C0900200000082008B501213A2000F007
S3150800254087FE012304220321002001F0F9FF002061
S315080025501EF07DFE2C4B0122C3F84423A3F550330D
S315080025604FF400225A66294BD3F8FC2012F08072E9
S3150800257006D01946D3F8FC3023F08073C1F8FC3036
S315080025802349D1F8803023F0030343F00203C1F84E
S31508002590803032B11D4AD2F8FC3043F08073C2F85D
S315080025A0FC304FF460701EF0E9FB184BD3F8F020AE
S315080025B042F00102C3F8F020D3F8FC2042F0807202
S315080025C0C3F8FC20A3F55D43124A1A6000F5D5202E
S315080025D000F2FC40C008104BA3FB0030800A01380B
S315080025E00E4B18610222C3F8F0204FF48072C3F82C
S315080025F004234FF060430A4AC3F8B02F094AC3F8C8
S31508002600802E002008BD00BF00D0035000ED00E07A
S3150800261000800050FF03004017916502000004E0A7
S3150800262055CEACC5090001004FF06043D3F8803E93
S3150800263013F0010F01D1112070470E4AD2F8FC3071
S3150800264043F08073C2F8FC304FF06043D3F8002E95
S315080026504FF0010C0CFA00FC42EA0C02C3F8002EFB
S3150800266053F82030002BE8D04FF0604303F82010D1
S315080026700020704700ED00E0F0B587B00C469446A0
S315080026809DF83C10674A1278002A00F0BE8005467D
S31508002690BCF10F0F00F2BB800C9A002A00F0B9803B
S315080026A00D9A002A00F0B780109AB2F5006F00F371
S315080026B0B48001285CD05C4A02EB0C12127B002A1B
S315080026C000F0AD80002201920292039204920592D4
S315080026D0564A02EB4C1E002C4FD14FEA4C160020EE
S315080026E09051CEF80400CEF80800CEF80C009EF8FB
S315080026F0020040F010008EF802009EF8030040F039
S3150800270030008EF8030021B9C1B241F003018EF8FA
S3150800271003100193109B013B444A4FEA4C1002EB0D
S315080027204C11165A63F30E1616520C9B8B600D9BB2
S315080027304B60CB789DF8442062F38303CB70012D60
S3150800274036D0129B002B56D0374A4FEA0C1102EBB3
S315080027500C1312985050139A5A6000249C605D73AB
S31508002760724601A9604601F0BDFF204607B0F0BDDC
S315080027700E9A002A9FD12E48F8E72C4F4FEA4C169E
S3150800278007EB4C120020B85150609060D0609078EA
S3150800279040F010009070D07840F00300D070002907
S315080027A0B7D107EB4C12C1B241F03001D170B0E796
S315080027B00E460A7B42F001020A73D2B242F00202C6
S315080027C00A73CA68042161F39F02F26006F11007D2
S315080027D096E80F0087E80F00F2696FF0030161F3CE
S315080027E09F02F2610E9B7361012CAAD10D9AB26108
S315080027F00E9A7260A5E7002DA6D10C4B03EB4C137D
S315080028009A786FF304129A709EE70A48AEE708486A
S31508002810ACE70748AAE70648A8E70548A6E7064832
S31508002820A4E700BFD49B0020D41F0020D42000209A
S31508002830018000F0028000F0078000F0134B1B783F
S31508002840FBB110B50446F0B11EF090FC00230F2B27
S3150800285013DC0F4A02EB0312127B0AB10133F6E7C7
S3150800286023600B4A190102EB031301241C7300248D
S3150800287054501EF081FC204602E01EF07DFC0548FF
S3150800288010BD054870470548FAE700BFD49B0020ED
S31508002890D41F0020048000F0028000F0018000F0C0
S315080028A038B51EF063FC044600230F2B06DC0C4AE1
S315080028B002EB0312127B12B90133F6E7002222B1AA
S315080028C020461EF059FC074838BD01F0A5FE002534
S315080028D0054B1D7020461EF04FFC2846F4E700BF46
S315080028E0D41F0020058000F0D49B00200F4B1B78D6
S315080028F0BBB110B504460F2815D81EF037FC0C4B93
S3150800290003EB04131B7B1BB91EF036FC09480BE0CE
S31508002910074B03EB041300241C731EF02DFC204602
S3150800292002E005487047054810BD00BFD49B00204B
S31508002930D41F0020068000F0028000F0018000F01D
S3150800294000B583B0134B1B68019300238DF8043040
S315080029501EF00CFC104B1B7833B90F4B01221A7072
S315080029601EF00AFC002309E01EF006FC0B480EE0E8
S315080029700B4A02EB03120021117301330F2BF7DD0B
S3150800298008238DF8073001A801F078FE002003B06F
S315080029905DF804FB98100308D49B0020038000F020
S315080029A0D41F002008B50A4B1B785BB10F280BD83B
S315080029B0084B03EB00131B7B43B1002101F050FECB
S315080029C0002008BD0448FCE70448FAE70448F8E78D
S315080029D0D49B0020D41F0020028000F0018000F064
S315080029E0078000F008B50A4B1B785BB10F280BD897
S315080029F0084B03EB00131B7B43B1012101F030FEAA
S31508002A00002008BD0448FCE70448FAE70448F8E74C
S31508002A10D49B0020D41F0020028000F0018000F023
S31508002A20078000F008B50A4B1B7853B10F280AD85F
S31508002A30084B03EB00131B7B3BB101F0A9FE0020FA
S31508002A4008BD0548FCE70548FAE70548F8E700BF6A
S31508002A50D49B0020D41F0020028000F0018000F0E3
S31508002A60078000F0104B1B78B3B10F2816D8B9B100
S31508002A700E4B03EB00131B7BA3B11F2809D80C4B85
S31508002A801A6B012303FA00F0024202D00B700020F1
S31508002A907047002008707047064870470648704718
S31508002AA00548704705487047D49B0020D41F00206E
S31508002AB000000450028000F0018000F0078000F05A
S31508002AC00C4B1B7873B110B50C460F280CD869B19E
S31508002AD0094B03EB00131B7B53B101F06BFE20700F
S31508002AE0002010BD054870470548FAE70448F8E78E
S31508002AF00448F6E7D49B0020D41F0020028000F08B
S31508002B00018000F0078000F00C4B1B7873B110B5FC
S31508002B100C460F280CD869B1094B03EB00131B7B35
S31508002B2053B101F061FE2060002010BD05487047D2
S31508002B300548FAE70448F8E70448F6E7D49B002076
S31508002B40D41F0020028000F0018000F0078000F00A
S31508002B50F8B5194B5F6D9B6D1F4002D40125002403
S31508002B6002E0FEE701346D000F2C24D83D42F9D06F
S31508002B70124B5D652301124AD358002BF2D002EBA3
S31508002B800416B1680131B16072682046984780F032
S31508002B900100C0B2737B012BE4D10028E2D0094BB7
S31508002BA003EB44131A7B6FF341021A731A7F6FF310
S31508002BB041021A77D6E7F8BD0000045000200450F9
S31508002BC0D41F0020D420002010B5044602E020209F
S31508002BD007E09047DCB194FAA4F00028F7D0B0FAE1
S31508002BE080F00123834024EA0304094B03EB001316
S31508002BF05A68002AEED0064B03EB00131B7B002B0A
S31508002C00E7D0034B03EB001399689047E2E710BD42
S31508002C10D422002008B5202000F0D8FE20B1074BAA
S31508002C200122C3F884215A60212000F0CFFE20B18A
S31508002C30024B0222C3F884215A6008BD00E100E075
S31508002C4038B505460C461EF091FA044B03EB0513FE
S31508002C505C6000221A731EF08FFA38BDD422002059
S31508002C6008B5084BD3F82403D3F82023104000F006
S31508002C70553020F0502003F50053C3F82003FFF722
S31508002C80A3FF08BD00C0035008B5084BD3F82403BA
S31508002C90D3F82023104000F0AA3020F0A02003F536
S31508002CA00053C3F82003FFF78FFF08BD00C0035089
S31508002CB038B505460C460F4BD3F8803003F00303AE
S31508002CC0022B0ED0032B10D0012B06D0002318465A
S31508002CD005B1286004B1236038BDFFF79BFB0D23BF
S31508002CE0F6E7FFF747FB0723F2E7FFF72FFB062375
S31508002CF0EEE700BF0080005038B505460C46164B77
S31508002D00D3F8203103F00703013B052B20D8DFE871
S31508002D1003F0030B130F171BFFF718FB052305B169
S31508002D20286004B1236038BDFFF71AFB0323F6E7D2
S31508002D30FFF720FB0723F2E7FFF718FB0223EEE76E
S31508002D40FFF704FB0623EAE7FFF70AFB0423E6E797
S31508002D5000231846E3E700BF0080005038B5054653
S31508002D600C46164BD3F8283103F00703013B052B15
S31508002D7020D8DFE803F003131B0F0B17FFF7E6FA5B
S31508002D80052305B1286004B1236038BDFFF7DEFAD4
S31508002D900623F6E7FFF7EEFA0723F2E7FFF7E0FA6E
S31508002DA00323EEE7FFF7DCFA0423EAE7FFF7DEFA88
S31508002DB00223E6E700231846E3E700BF0080005039
S31508002DC070B582B006460D4600230193104BD3F822
S31508002DD0804104F00304022C16D0032C0FD0012CDA
S31508002DE007D000240EB1019B336005B12C6002B0F8
S31508002DF070BD002101A8FFF77FFF0F24F2E7FFF758
S31508002E00B9FA01900724EDE7FFF7B0FA0190E9E770
S31508002E100080005038B505460C460C4BD3F8903266
S31508002E2003F00303012B05D0022B07D1FFF7A2FA03
S31508002E30072305E0FFF79AFA022301E00023184664
S31508002E4005B1286004B1236038BD00BF008000507A
S31508002E5030B583B005460C4600230193144BD3F8CE
S31508002E60203203F00703013B032B1ED8DFE803F0EB
S31508002E70020E1318002101A8FFF770FF11230DB1E8
S31508002E80019A2A6004B1236003B030BDFFF772FAD5
S31508002E9001900723F3E71DF07CFE01900A23EEE775
S31508002EA0FFF7ACFA01900923E9E70023E7E700BF3B
S31508002EB00080005038B505460C460E4BD3F8A032B4
S31508002EC003F00303022B0DD0032B0FD0012B06D0E2
S31508002ED00023184605B1286004B1236038BD1823BD
S31508002EE00548F7E7FFF78AFA0923F3E71DF051FECD
S31508002EF00A23EFE700800050006CDC0238B505466F
S31508002F000C460F4BD3F8403103F00303022B0ED0C7
S31508002F10032B10D0012B06D00023184605B12860D4
S31508002F2004B1236038BD1DF034FE0A23F6E7FFF727
S31508002F3065FA0923F2E71DF02FFE0B23EEE700BF23
S31508002F400080005030B583B005460C460023019337
S31508002F50144BD3F8603203F00703013B032B1FD849
S31508002F60DFE803F0020E1914002101A8FFF7C4FEDA
S31508002F700F230DB1019A2A6004B1236003B030BD56
S31508002F80002101A8FFF7BAFF1023F2E7FFF7F2F9CD
S31508002F9001900723EDE7FFF7E9F901900223E8E737
S31508002FA00023E6E70080005030B583B005460C469E
S31508002FB0002301930C4BD3F8703203F00303012B63
S31508002FC009D0022B0DD114230DB1019A2A6004B140
S31508002FD0236003B030BD002101A8FFF78FFF10233F
S31508002FE0F2E70023F0E700BF0080005038B5054639
S31508002FF00C46124BD3F8003203F00703013B032BB0
S3150800300018D8DFE803F0020A0E121DF0C2FD0A23E3
S3150800301005B1286004B1236038BDFFF7EFF909232D
S31508003020F6E71DF0B9FD0B23F2E7FFF713FA800A5E
S315080030300E23EDE700231846EAE700BF008000509C
S3150800304038B505460C46124BD3F8083203F0070389
S31508003050013B032B18D8DFE803F0020A0E121DF015
S3150800306098FD0A2305B1286004B1236038BDFFF72F
S31508003070C5F90923F6E71DF08FFD0B23F2E7FFF7E5
S31508003080E9F9800A0E23EDE700231846EAE700BFB0
S315080030900080005038B505460C460F4BD3F8403231
S315080030A003F00303022B0ED0032B10D0012B06D0FE
S315080030B00023184605B1286004B1236038BD1DF009
S315080030C068FD0A23F6E7FFF799F90923F2E71DF0E9
S315080030D063FD0B23EEE700BF0080005038B50546B8
S315080030E00C460F4BD3F8603103F00303022B0ED0C6
S315080030F0032B10D0012B06D00023184605B12860F3
S3150800310004B1236038BD1DF044FD0A23F6E7FFF736
S3150800311075F90923F2E71DF03FFD0B23EEE700BF23
S315080031200080005038B505460C46104BD3F8000110
S3150800313000F00300032815D8DFE800F002080C1099
S31508003140012305B1286004B1236038BDFFF708F9EB
S315080031500323F6E7FFF752F90923F2E71DF017FDF7
S315080031600823EEE700231846EBE700BF008000506F
S31508003170B0F5207F20D00ED8B0F5007F16D020D825
S3150800318010B1B0F5C07F04D10F4B186FC0F30330F0
S3150800319018E0002016E0B0F5607F05D10A4BD3F899
S315080031A08000C0F301100DE000200BE0064BD3F8B9
S315080031B09000C0F3046005E0034B186FC0F380204D
S315080031C000E00020013070470080005038B5054601
S315080031D00C461A4B4FF480329A660020FFF7C8FF58
S315080031E005FB00F0164BDA6902F4803241F67131BC
S315080031F0D9635B6823F440136CB91249884217D81F
S315080032001149884217D81149884201D8002105E09A
S315080032104FF4801102E0002C07DD00210B4308491A
S315080032204B600AB10022CA6338BD4FF44011F5E776
S315080032304FF44011F2E74FF40011EFE70090005009
S3150800324000000350C068780480F0FA0240787D01D7
S31508003250430905D0012B0ED0022B0ED0002200E028
S31508003260002200F01F0051B102F58052012303FA33
S3150800327000F010607047034AF3E7034AF1E702F5E6
S315080032800052F3E7648000506880005000B583B0B0
S3150800329000230193B0F5807F00F04C8118D9B0F572
S315080032A0086F00F0518140F2DB80B0F5306F00F016
S315080032B05A8140F20481B0F5386F00F04081B0F5CC
S315080032C0406F40F02E8101A90020FFF747FD28E155
S315080032D0802800F226812428C0F0238124385C281F
S315080032E000F21F8101A353F820F000BF2B35000818
S315080032F02B3500082B3500082B3500082B35000820
S315080033002B3500081B350008233500083F35000813
S31508003310B53400082335000823350008233500088E
S31508003320233500082335000823350008233500080F
S3150800333023350008233500082335000823350008FF
S315080033403F350008233500082335000823350008D3
S31508003350773400085335000823350008233500085C
S3150800336023350008233500082335000823350008CF
S3150800337023350008233500082335000823350008BF
S31508003380233500082335000823350008C73200080E
S31508003390C7320008233500082335000823350008FE
S315080033A0DB34000823350008233500085D3500089E
S315080033B0CB3400089F340008C7320008C73200081B
S315080033C0233500082335000823350008773400081C
S315080033D02B3500082B350008713500082335000801
S315080033E0233500082335000823350008233500084F
S315080033F0233500082335000823350008233500083F
S31508003400233500082335000823350008233500082E
S31508003410233500082335000823350008233500081E
S31508003420233500082335000823350008233500080E
S3150800343023350008233500082335000823350008FE
S3150800344023350008233500082335000823350008EE
S31508003450233500082335000823350008E53400081D
S31508003460B0F5B06F59D00BD9B0F5E06F71D01BD954
S31508003470B0F5F06F55D101A90020FFF72FFE50E0F7
S31508003480B0F5607F04D101A90020FFF711FC48E0E0
S3150800349047D3B0F5806F48D0B0F5A06F41D101A9E8
S315080034A00020FFF7D5FC3CE0B0F5C06F47D0B0F57B
S315080034B0D06F36D101A90020FFF798FD31E0B0F5AD
S315080034C0206F4BD0B0F5286F04D101A90020FFF773
S315080034D06BFD26E0B0F5106F23D101A90020FFF798
S315080034E0AFFD1EE0254B1B6F03F00703013B042BC2
S315080034F017D8DFE803F00C0306090F00052301932C
S315080035000FE0032301930CE00823019309E002234B
S31508003510019306E01923019303E001A90020FFF7B0
S315080035204FFC019803B05DF804FB01A90020FFF7E2
S31508003530E3FBF6E701A900201DF0FBFBF1E701A973
S315080035400020FFF7DBFCECE701A90020FFF7EAFD06
S31508003550E7E701A90020FFF79DFDE2E701A90020A2
S31508003560FFF7F0FCDDE701A90020FFF753FCD8E7D9
S3150800357001A90020FFF79EFCD3E700BF008000509A
S31508003580044B4FF480125A66034B4FF480329A620A
S31508003590704700BF009000500050005A274B4FF06C
S315080035A000429A66264B45F60E021A6303F58052C8
S315080035B00221D16003F500530122DA60204B1B6912
S315080035C013F4003FFAD102681E4B9A4231D01E4BC3
S315080035D04FF40072DA611A4B1B6913F0804FFAD167
S315080035E0174AD36823F0FF7323F4FF3323F4897350
S315080035F023F0010301680B43017943EA011341797A
S3150800360043EA410381790B43D3600D4B1B6913F0E1
S31508003610804FFAD1837933B1094B1B6903F44033E0
S31508003620B3F5403FF8D1C37913B1054B074A1A637E
S315080036307047074B4FF40072DA61CCE700900050F0
S31508003640004000570001360000600057F1A7FFFF51
S315080036500050005710B504468020FFF717FE184B98
S315080036604FF400729A66174A48F2A953C2F8B03066
S31508003670536923F48173217943EA0123617943EA83
S3150800368041035361916D104B0B40E17943EA0143C5
S31508003690217A43EA0133617A0B4393652068FEF782
S315080036A0FDFE63792BB1074B1B6A03F00303032B5B
S315080036B0F9D1A3791BB1034B044AC3F8B02010BD56
S315080036C00090005000800C50800FE0FFF1A7FFFF2C
S315080036D010B504468020FFF7D9FD032800F0A18025
S315080036E0504B4FF480125A664F4B45F60E02C3F8FC
S315080036F0802003F580524FF0A061916203F50053D4
S315080037004FF480329A62484B9B6D13F4803FFAD18E
S31508003710226863681B0543EA0263227B43EA024385
S31508003720627B43EA0233A27B43EA8213E27B1343BA
S315080037303D4A1361936903F00043216943EA8163B3
S31508003740616943EA0163217E43EA0143617E43EAF4
S315080037500123A17E0B439361136A23F00F03E269E9
S31508003760002A40D111460B43E17E43EA8103134305
S315080037702D4A1362E369002B37D1916A2B4B0B4014
S3150800378094F8201043EA411394F8211043EA0113F0
S3150800379094F8241043EAC10343F480339362224B1E
S315080037A09A6D234B9343FAD11F4A02F580514FF085
S315080037B080738B62136923F47003A06843EA00538D
S315080037C013614FF000438B6194F822301BB9194BF3
S315080037D04FF080729A6294F82330DBB9154B4FF498
S315080037E080329A6216E00821BDE70F4A916A0F4BAC
S315080037F00B4094F8201043EA411394F8221043EA48
S31508003800016394F8241043EAC10394F8231043EAA9
S315080038100143936294F825301BB1034B064AC3F85B
S31508003820802010BD009000500040005AC7FFFEFEE1
S31508003830030001000060005AF1A7FFFF014B187052
S31508003840704700BF54130020014B93F900007047DE
S315080038505413002010B443784F2B28BF4F231A4621
S315080038601C4B4FF40001596603F5B8334FF4D15198
S31508003870596203F5805102244C6003F50053012177
S315080038805960154B1B6913F4803FFAD1037842EA55
S315080038900323114A5361416883681B0143EA0123E4
S315080038A0017B43EA4103417B0B439360817BC37BE6
S315080038B01B0143EA4113017C43EA4103417C0B4364
S315080038C05360837C1BB113466FF4D1525A625DF87C
S315080038D0044B70470090005000000250014B1880BE
S315080038E0704700BFF4120020B0F5207F4DD01DD8D8
S315080038F0B0F5007F3ED051D810B1B0F5C07F14D1D5
S3150800390010B54C1E1DF033FA1DF013FC244B196F2D
S3150800391021F4704141EA04311967FEF79BFD002145
S315080039201DF0FCFB00F040F810BD7047B0F5607F55
S315080039301FD11C4BD3F8FC2012F0807206D0184613
S31508003940D3F8FC3023F08073C0F8FC3001391448F2
S31508003950D0F8803023F0300343EA0111C0F8801014
S31508003960E2B1104AD2F8FC3043F08073C2F8FC305A
S315080039707047704701390A4AD2F8903023F0F85355
S3150800398043EA0161C2F8901070470139044A136F7F
S3150800399023F4806343EA812111677047704700BFAB
S315080039A00080005000ED00E008B54FF4C0701DF02F
S315080039B0E5F9054B984205D902214FF42070FFF727
S315080039C093FF08BD0121F8E780F0FA024209064B89
S315080039D053F8223000F01F0023FA00F080F00100AF
S315080039E000F00100704700BF00E100E0044A536F91
S315080039F023F44073417843EA01235367704700BFB5
S31508003A000040005010B50446094A136943F0040300
S31508003A1013610EF0E7F91DF0B2FB30BF1DF0B0FBE5
S31508003A200EF0F6F904B110BDFEF714FDFBE700BF72
S31508003A3000ED00E010B50446074A136943F0040395
S31508003A4013610EF0CFF930BF0EF0E2F904B110BDE4
S31508003A50FEF700FDFBE700BF00ED00E0034AD36E6A
S31508003A6023F0300301790B43D366704700400050BA
S31508003A7008B51D4B4FF000425A6603F50B235A6CE6
S31508003A8002F001024AF6CD31196490B9174B9B6BC7
S31508003A9013F0010FFAD1154B5B6813F0010F1BD019
S31508003AA0134B01215960114B5B6B13F0010FFAD0D0
S31508003AB012E00E4B5B6B13F0080FFAD10B4B03F5B4
S31508003AC000512020C86203F5805301215960074B35
S31508003AD0DB6A13F0200FFAD012B1044B054A1A64B8
S31508003AE01FF070FA08BD00BF009000500040095052
S31508003AF0006009503254FFFF38B5164BDC6E24F0CF
S31508003B00030444F00204DD6E45F003054AF6E85264
S31508003B101A661DF015FB104A136F23F0070343F0CE
S31508003B20010313671DF012FB0020FFF7A1FF1DF02C
S31508003B302AFB1DF029FB002303E0064AD466D56656
S31508003B400133032BF9DD034BDC6603F51023DB6A2F
S31508003B5038BD00BF004000500080005010B51A4B19
S31508003B604FF000425A6603F50B235C6C04F001041F
S31508003B704AF6CD321A6443785B0043F00103134AD0
S31508003B80D363134B9B6B13F00B0FFAD1104A536890
S31508003B9023F4F873817843EA01135360C1784379B3
S31508003BA043EA0123D3600179837943EA0123536108
S31508003BB00078FFF75DFF14B1054B064A1A641FF03B
S31508003BC001FA012010BD00BF0090005000400050CF
S31508003BD0004009503254FFFF10B5134B5C6E03F5D5
S31508003BE080534FF000425A6603F50B235A6C02F0D5
S31508003BF001024AF6CD3119640C4B9B6B13F0800F0A
S31508003C00FAD10A494B6A23F4F85343EA002048627A
S31508003C100AB1074A0A64002C03DB064B4FF0004240
S31508003C205A661FF0CFF910BD0080005000400950B9
S31508003C303254FFFF00A000500E4B984212D00E4B94
S31508003C40984211D003F5804398420FD003F580437C
S31508003C5098420DD003F58043984201D00020704762
S31508003C604D20704756207047572070475820704798
S31508003C704C2070470000015B00000A50436813F0AF
S31508003C80010F19D0836813F0010F03D0036913F0ED
S31508003C90010F09D00A238363436D13F0500FFBD13C
S31508003CA0836C13F0030FFBD100F5005301225A6011
S31508003CB0436813F0020FFBD1042307E000F5805395
S31508003CC004221A6100F500531A610B46591E002B8F
S31508003CD0F4D1202303610023C360836041F202020A
S31508003CE04261836183654FF4A0224262C361036225
S31508003CF08362C3624363036500F500520149D164D8
S31508003D0003637047FF3F0D0338B50446154608465A
S31508003D10E1B1A36813F0010F4ED06268B0FBF5F06D
S31508003D20013812F001023BD0636D13F0280FFBD166
S31508003D30A36C13F0030F0FD1A36C13F0010F2BD153
S31508003D40A36C13F0020F29D1002106E02046FFF7E5
S31508003D5073FF1DF013F8DCE70521636813F0010F04
S31508003D601FD0A36813F0010F03D0236913F0010FC6
S31508003D7009D00A23A363636D13F0500FFBD1A36C1C
S31508003D8013F0030FFBD104F5005301255D6063684A
S31508003D9013F0020FFBD104E00921DEE70621DCE778
S31508003DA00021236923F07F4343EA0060206132B390
S31508003DB020461DF0EAF922E06368A36D13F0010FAF
S31508003DC000D06D00A36803F0E003402B1DD017D97F
S31508003DD0602B1ED0802B12D10123400105FB03F373
S31508003DE0B0FBF3F020380C4B03EAC000636D13F008
S31508003DF0010FFBD12063636D13F0010FFBD138BDB2
S31508003E002BB1202BFBD10823E7E70623E5E7102390
S31508003E10E3E70423E1E700BFF8FF7F00F8B50446AF
S31508003E200D4617461E46436823B1616DC1F30B0163
S31508003E300029FAD12046FFF721FF636923F44C5382
S31508003E4023F00F036A7B1343EA8913432A8A134331
S31508003E506361A16821F0804121F0E2012B7B1943BF
S31508003E602B7E19436B691943A160AB681BB9A3681C
S31508003E7043F00043A360EA69002A00F0AF80A36814
S31508003E80127A43EA8253A360A368EA69927A43EAFC
S31508003E904243A360A368EA69928802F4C0421343C6
S31508003EA0A360A368EA69527843EA8203A360A36819
S31508003EB0EA69527B43EAC203A360A368EA69927B74
S31508003EC043EA0213A360A368EA69927843EA822365
S31508003ED0A360EA699179D3795B0243EA8123E360B7
S31508003EE0EB691B78012B01D0032B03D1E36843F060
S31508003EF00403E360EB691B78023BDBB2012B17D99D
S31508003F00A14B9C423ED0A14B9C4200F0938003F506
S31508003F1080439C4200F0908003F580439C4200F069
S31508003F208D8003F580439C422AD04FF0FF332AE068
S31508003F30954B9C4213D0954B9C421BD003F580436E
S31508003F409C4219D003F580439C4217D003F5804361
S31508003F509C4202D04FF0FF3302E0042300E0002326
S31508003F605B0103F1A04303F5703341F29432022159
S31508003F70995011E00123F3E70223F1E70323EFE762
S31508003F80042300E000235B0103F1A04303F570332B
S31508003F9042F2943202219950EB695A7A04F5805319
S31508003FA09A62EB695B7A1BB1E36843F40063E360EA
S31508003FB0EB69DB7A93B1E36843F40043E360724B41
S31508003FC09C423DD0714B9C4241D0714B9C4245D09E
S31508003FD0704B9C4249D0704B9C424ED03FB197F8EB
S31508003FE02030002B51D004F5805301221A62002E8E
S31508003FF000F0B3802B7E23B104F580534FF40042C2
S315080040009A6596F82110102973D85F4B9C424DD0BB
S315080040105E4B9C4267D003F580439C4265D003F50E
S3150800402080439C4263D003F580439C423CD04FF0CA
S31508004030FF303CE00123A6E70223A4E70323A2E717
S31508004040EB691B7B03F00F03544A5366BAE7EB6927
S315080040501B7B03F00F03514A1367B6E7EB691B7B1B
S3150800406003F00F034D4AD367B2E7EB691B7B03F0F6
S315080040700F034A4AC2F88830ADE7EB691B7B03F0A9
S315080040800F03464AC2F89430A8E7E36923F0090308
S3150800409097F82220134397F82120134343F001038E
S315080040A004F58052D361A2E7042000E000203C4BCF
S315080040B001221A54728CB2F5006F75D8324B9C42A5
S315080040C03BD0324B9C4259D003F580439C4257D093
S315080040D003F580439C4255D003F580439C422AD081
S315080040E04FF0FF362AE00120E1E70220DFE7032050
S315080040F0DDE7254B9C4213D0244B9C4215D003F593
S3150800410080439C4213D003F580439C4211D003F5AB
S3150800411080439C4202D04FF0FF3002E0042000E0CA
S3150800412000201F4B02221A54C4E70120F9E7022097
S31508004130F7E70320F5E7042600E00026194B0120DF
S315080041409855A36D23F4F95323F01E030B43134329
S31508004150A36504F5805301229A65052120461DF0C2
S3150800416014F8AA68002A41D1297820461DF00DF8CE
S31508004170A36CDB4313F4405FFAD1F8BD0126DDE7F3
S315080041800226DBE70326D9E70000015B00000A5098
S3150800419000400A5000800A5000C00A5000900350A0
S315080041A0DC240020D4240020134B9C4213D0134B4C
S315080041B09C4215D003F580439C4213D003F58043F7
S315080041C09C4211D003F580439C4202D04FF0FF3643
S315080041D002E0042600E00026094B02209855B0E7C5
S315080041E00126F9E70226F7E70326F5E76968204678
S315080041F0FFF78AFDB8E700BF0000015B00000A5020
S31508004200D424002070B504460D460E69436823B1D0
S31508004210636DC3F30B03002BFAD12046FFF72EFD7F
S31508004220236923F087036A7B1343AA7B134343F06E
S31508004230800323611EB3236923F0F8032A69117FDB
S3150800424043EAC113117943EA4113517A43EA011348
S3150800425011780B43D27B43EA82132361E36823F088
S31508004260F04323F470232A6951690B4391690B4380
S31508004270117B43EA8123527B43EAC233E360A36896
S3150800428023F00303EA7B134343F00103A3603EB321
S31508004290A3682A69528802F4C0421343A360A3683C
S315080042A02A69527943EA8223A360636A23F477234F
S315080042B023F4EE6329698A79120102F07002134326
S315080042C0CA79120202F4E06213430A7A120302F46C
S315080042D0E04213434A7F120402F4702213436362D6
S315080042E0636923F00F032A7B1343636136B32B6993
S315080042F05B89A3612B695A7B72B1414A944236D0D5
S31508004300404B9C4239D0404B9C423DD03F4B9C424F
S3150800431041D03F4B9C4246D02B69DA7B72B1384A72
S31508004320944248D0374B9C424BD0374B9C424FD097
S31508004330364B9C4253D0364B9C4258D0AA68696883
S315080043402046FFF7E1FC052120461CF01EFF636DA1
S3150800435013F0280FFBD12B78A363636D13F0280F96
S31508004360FBD1A36CDB4313F4405FFAD170BD9B7B92
S3150800437003F00F03274A5366C2E72B699B7B03F0BA
S315080043800F03244A1367BEE72B699B7B03F00F03D1
S31508004390204AD367BAE72B699B7B03F00F031D4AB4
S315080043A0C2F88830B5E72B699B7B03F00F03194ADF
S315080043B0C2F89430B0E71B7C03F00F03154A136666
S315080043C0B0E72B691B7C03F00F03124AD366ACE7F0
S315080043D02B691B7C03F00F030E4A9367A8E72B692A
S315080043E01B7C03F00F030B4AC2F88430A3E72B6942
S315080043F01B7C03F00F03074AC2F890309EE700BF04
S315080044000000015B00000A5000400A5000800A5074
S3150800441000C00A50009003502DE9F84F0C46154687
S315080044201E469DF828809DF82C70072A44D84FEA26
S315080044308209032303FA09FA00FA09F91CF08FFE28
S31508004440384AD2F8001389EA010303EA0A034B4003
S31508004450C2F800331CF087FE4FF0000A072D43D838
S31508004460A9004FF0030909FA01F904F003048C4086
S315080044701CF075FE2B4BD3F80823544004EA0904B4
S315080044805440C3F808431CF06EFE002E44D0264A5A
S315080044900123AB401360B8F1000F3FD0234A1360E5
S315080044A0012202FA05F5224AC2F82053C7B3A2F63A
S315080044B0DC421360BDE8F88FA2F1080A4FEA8A09C0
S315080044C0032303FA09FB00FA09F91CF048FE154A0A
S315080044D0D2F8041389EA010303EA0B034B40C2F836
S315080044E004331CF040FEB9E74FEA8A0A4FF0030985
S315080044F009FA0AF904F0030404FA0AF41CF02FFE78
S31508004500084BD3F80C23544004EA09045440C3F872
S315080045100C431CF028FEB8E7064AB9E7064ABEE788
S31508004520064AC6E700C0035010D3035014D30350FD
S3150800453000E0035010E3035014E3035024E3035050
S315080045402DE9F84F04460E461F4690463AB183B306
S3150800455001228A4000EB400109012C4B5A50072ED4
S315080045602FD804EB44094FEA091909F10409DFF8C1
S31508004570A4A0B3000F2505FA03FB08FA03F51CF0FF
S31508004580EEFD59F80A305D4005EA0B055D4049F82D
S315080045900A501CF0E8FDB8F1000F08D16FB30121ED
S315080045A001FA06F604EB44042401184B1E51BDE833
S315080045B0F88F01228A4000EB40010901144B5A503A
S315080045C0CDE704EB44052D010C35DFF84890A6F13C
S315080045D008039B000F2202FA03FA08FA03FB1CF0F1
S315080045E0BEFD55F809308BEA030202EA0A025A4070
S315080045F045F809201CF0B7FDCDE7012101FA06F6BA
S3150800460004EB44042401024B1E51D0E740D003506A
S3150800461040E0035030C0035008B50F4B4FF08052AE
S31508004620C3F88020BFF34F8FBFF36F8F0B4B002269
S315080046309A654FF6FF71D9625A60084B5B6813F0AA
S31508004640020FFAD100212020FEF702FE00212120C8
S31508004650FEF7FEFD08BD00BF00E100E000000450C3
S3150800466029B9044A012303FA00F010607047024A88
S31508004670F8E700BF441004504420045010B504461F
S3150800468001212020FEF7E4FD01212120FEF7E0FDAF
S31508004690124B01225A6022781206DA606178A278F3
S315080046A042EA0142DA614FF6FF72DA620022DA6301
S315080046B05A644FF000429A6503F500534FF0FF32F3
S315080046C05A65074A4FF08051C2F88011E3781B01FA
S315080046D0DBB282F81C33116010BD00BF0000045025
S315080046E000E100E070B50C46C3B201259D40274E97
S315080046F006F500535D650968830003F1A04303F5D9
S3150800470088235960637B00EB400106EB01114B6679
S3150800471094F80AC0E37A1B0543EA0C4394F80CC0E4
S3150800472043EA4C5394F80EC043EA8C5394F80FC0EE
S3150800473043EACC5394F810C043EA0C630B6622F0A4
S3150800474003024A671CF012FDB36D2B43B365237A47
S3150800475013B1736C2B437364637A1BB10B4AD36B27
S315080047602B43D3632379A27942EA0342074B03F525
S315080047700051CA616679E27942EA064203F5805435
S31508004780E2618D63DD641CF0F7FC70BD0000045027
S3150800479010B5C0B2012484401CF0E8FC044B9A6DA5
S315080047A022EA04029A65DC621CF0E6FC10BD00BF32
S315080047B00000045010B5C0B2012484401CF0D6FC99
S315080047C0084B1B6B234206D1064B9B6B34EA03034B
S315080047D006D0002400E000241CF0CEFC204610BDC4
S315080047E00124F9E700000450F8B50446C3B20125D0
S315080047F09D401CF0BBFC0A4B5F6D9E6B04EB4404AA
S3150800480003EB0414A46E1CF0B7FC2F40C4F30A1083
S31508004810354203D100B907B90130F8BD0020FCE7DD
S315080048200000045041B90630084B53F8200020F028
S31508004830F8004004400C70471230044B53F820002F
S3150800484020F0F8004004400C704700BF0080035079
S3150800485070B50446C2F3062602F0070241B942EAD9
S31508004860062242F440220634094B43F8242070BD40
S31508004870114630461CF026FD054630461CF0E8FC7D
S3150800488045EA00251234024B43F82450EFE700BFEF
S315080048900080035010B40C4689B90F4942EA034216
S315080048A041F820206CB90D49D1F81835012202FAD1
S315080048B000F01843C1F818055DF8044B704708491D
S315080048C0ECE70649D1F818350C30012202FA00F057
S315080048D01843C1F81805EFE71CC5035000C003507C
S315080048E04CC50350014BD3F8940070470040005064
S315080048F0094B4FF480325A6603F5E6239B69C3F3E6
S31508004900461203F00F010A434280C3F30342427082
S31508004910C3F3033303707047009000500A4B9B683B
S3150800492013F0020FFAD1084B5B6813F0020FF5D1AA
S31508004930054BDB69002BF1D1034B03F580510122AE
S315080049404A601A61704700BF00000B500A4B5B684B
S31508004950012B00D07047084B5B6813F0010F03D09A
S31508004960054BDB69002BF6D1034B02221A6103F5CE
S31508004970005301225A60EDE700000B5038B5054692
S31508004980134B9B6813F0020FFAD1114B5B6813F0B7
S31508004990020FF5D10E4BDC69002CF1D15B68012BB7
S315080049A005D02B7803B10124094BDC6038BDFFF72D
S315080049B0CDFF074B9B6813F0020FFAD1044B5B68D7
S315080049C013F0020FF5D1024BDB69002BF1D1E8E7B2
S315080049D000000B50D8B90B78D3B101234A6812B13D
S315080049E0127843EAC2034A78A2B1022213438A68BC
S315080049F012B1127843EA82138A786AB10422134301
S31508004A00CA6812B1127843EA4223044A936470478B
S31508004A100023E3E70022E9E70022F0E700000B5055
S31508004A2008B9014B5964704700100B5008B9014B7F
S31508004A305964704700200B5008B9014B1964704738
S31508004A4000200B5010B9024B186C704700207047B5
S31508004A5000000B5048B911B1012903D07047044B27
S31508004A60D86C7047024B186D70470020704700BF1E
S31508004A7000000B5040B911B1012903D07047034B10
S31508004A80DA647047014B1A65704700BF00000B5087
S31508004A9038B50546054C20461CF0AFFDA5702146E5
S31508004AA0034B18681EF039FA38BD00BFE42400200D
S31508004AB0805D002038B504468368196801200AF02D
S31508004AC0A7FB00B938BDA368E26853F822301D6811
S31508004AD0E8B2FFF7DDFFA3682A46024918680DF019
S31508004AE0B7FEEFE79C10030810B504461CF037FB29
S31508004AF0084B1B7853B9B4F5A05F09D8054B0122BA
S31508004B001A70054C1CF02FFB204610BD0024F9E74F
S31508004B100024F7E7D59B0020EC240020184B1B68DF
S31508004B200BB10120704710B5044641F27830FFF703
S31508004B30DBFF0346124A1060C8B100F1680100F5B0
S31508004B408052C2F8F4120021C2F8F81200F5945007
S31508004B501030C2F8FC020120C2F80003C2F80413A0
S31508004B60C2F8901203F59453C2F8A43210BDA36894
S31508004B70044A862118680DF0C3FE0020F6E700BF38
S31508004B80EC380020A81003080C2A0AD80C2A61D889
S31508004B90DFE802F01417601B202560602A30363CD7
S31508004BA04200FF2A08D1002302283BD003284AD016
S31508004BB0002841D00120704701207047294B1B6807
S31508004BC0F2E7284B1B684C33EEE7264B1B6803F6C7
S31508004BD06803E9E7234B1B6803F50763E4E7214B02
S31508004BE01B6803F50863DFE71E4B1B6803F595533F
S31508004BF01433D9E71B4B1B6803F598530833D3E7DF
S31508004C00184B1B6803F598530D33CDE7154B1B68F6
S31508004C1003F59B530433C7E7124B1B6803F59B53F5
S31508004C201033C1E7B1F5007F16D20E4A12681A3161
S31508004C3042F821300020704712290FD8094A126815
S31508004C4042F82130704759B9064A1268C2F86838DE
S31508004C5000207047012070470120704701207047E7
S31508004C6001207047EC38002038B504461EF011F8CC
S31508004C70012802D00225284638BD002006F0C0FECD
S31508004C8005460028F7D120461EF090F9084B19680A
S31508004C90084A01F59751143120460EF0B3FE00225A
S31508004CA0054B1A60032120461DF0F7FFE3E700BF16
S31508004CB0EC380020630A0208AC6D002000B50C2809
S31508004CC06ED8DFE800F00712181E252C333A6D421D
S31508004CD04A525A00344800684FF04C0E01EB020C59
S31508004CE0F4455FD80144104654E02F4800684C301C
S31508004CF04FF01A0EF2E72C48006868304FF4006E41
S31508004D00ECE72948006800F668004FF0080EE5E76A
S31508004D102548006800F507604FF0100EDEE72248C8
S31508004D20006800F508604FF4206ED7E71E48006853
S31508004D3000F594504FF0100ED0E71B48006800F5B8
S31508004D40945010304FF0240EC8E71748006800F555
S31508004D50985008304FF0050EC0E71348006800F574
S31508004D6098500D304FF0560EB8E70F48006800F51A
S31508004D709B5004304FF00C0EB0E70B48006800F566
S31508004D809B5010304FF0050EA8E713F8010B01F8F9
S31508004D90010B1046421ED2B20028F6D15DF804FB7C
S31508004DA00120FBE70120F9E7EC380020F0B585B0D3
S31508004DB004468268C368023352F823301D78FFF729
S31508004DC0ADFE002839D06368E6689B1BEA1C93424F
S31508004DD00BD10A2D10D8A36853F826201078721C18
S31508004DE053F82230198800231BE0A368174A80214C
S31508004DF018680DF085FD20E0A368154A812118681A
S31508004E000DF07EFD19E0DA1C3244A76857F8222017
S31508004E1092F800C003F110026A4402F80CCC013380
S31508004E20DBB2AB42EFD301AB2A46FFF747FF30B9F7
S31508004E30A368084918680DF00BFD05B0F0BDA36816
S31508004E40054A822118680DF05BFDF6E7C8100308CD
S31508004E50FC100308481103082C11030810B5044672
S31508004E60FFF75CFE50B16268E368D21A032A06D0DF
S31508004E70A368114A832118680DF042FD10BDA26887
S31508004E8052F82300591C52F82110023352F82330E5
S31508004E901A7809880078FFF777FE28B9A3680749C2
S31508004EA018680DF0D5FCE9E7A368054A8421186857
S31508004EB00DF026FDE2E700BF60110308481103085C
S31508004EC08011030810B50446FFF728FE00B910BD87
S31508004ED0084B1868FFF7C8FE28B9A368064918687A
S31508004EE00DF0B6FCF3E7A368044A852118680DF0AF
S31508004EF007FDECE7805D0020481103089C110308B4
S31508004F00F0B599B004468368196801200AF080F95B
S31508004F10002800F089800DF1440C574D0FCDACE800
S31508004F200F0095E807008CE8070000250695012381
S31508004F308DF81C304FF42873ADF81E3002238DF817
S31508004F4020308DF821308DF822308DF823300DF180
S31508004F50240C0DF1440EBEE80F00ACE80F009EE8E5
S31508004F6007008CE807000B238DF840308DF8415078
S31508004F708DF842508DF84350A768E56857F82560C4
S31508004F8004223E4930461FF092FC002839D10123FD
S31508004F908DF820308DF82230A168013551F825307A
S31508004FA01B880B930993E3689A1C51F822201288F0
S31508004FB00C920A3A0A92DA1C51F822201288ADF8A5
S31508004FC01E206268D21A042A0ADD043351F82330F7
S31508004FD01B78003B18BF0123294A13708DF843300C
S31508004FE0082006F00DFDC8B906A9264B18680EF06C
S31508004FF079FF0146D0B1A368234A18680DF080FCF2
S3150800500012E00222214930461FF051FC0028C3D085
S315080050101F4A202138680DF073FC05E0A3681D4A75
S31508005020222118680DF06CFC19B0F0BD154B1A68F2
S31508005030194B1A60A3681D689DF822000AF044F807
S3150800504004469DF820000AF03FF80B9B0C9ABDF821
S315080050501E109DF8436066B1104E049603910292A5
S315080050600193009023460E4A0E4928460DF0F0FBA0
S31508005070DAE70D4EF1E700BF5C170308DC110308F9
S31508005080D89B0020805D002024120308C4930208E0
S31508005090E411030804120308F8380020D4110308A1
S315080050A0541203085C120308CC11030838B50446E9
S315080050B08368196801200AF0ABF800B938BD0820E2
S315080050C006F09EFC0246002830D16368E1685B1A48
S315080050D0002B05DDA26852F82120127802B10122C0
S315080050E0012B08DDA0684D1C50F82500007810B18A
S315080050F042F00202D2B2022B08DDA368023153F84D
S3150800510021301B7813B142F00402D2B20F4B53F888
S3150800511022300F4A10689847054670B1A368186888
S3150800512095B10C4A0C490DF093FBC7E7A3680B4AE7
S31508005130222118680DF0E4FBC0E7094B01221A701A
S315080051400B2008F005F9E9E7064AEBE7A01703087C
S31508005150805D0020D4120308E01203080412030835
S31508005160551300205412030838B504468368196895
S3150800517001200AF04DF800B938BD082006F040FCB9
S3150800518068B9154B18681EF04CFB054670B1A36844
S315080051901868FDB1114A12490DF05AFBECE7A368ED
S315080051A0104A222118680DF0ABFBE5E70E4B0222E8
S315080051B01A70802008F0CCF80C4B1B88102BE6D10F
S315080051C00B4B1B780F2BE2D1094B18221A70702251
S315080051D05A70DCE7074ADEE7805D0020D412030830
S315080051E0E01203080412030855130020FC120020DD
S315080051F0A40900205412030838B5044683681968C0
S3150800520001200AF005F800B938BD082006F0F8FBB9
S3150800521068B9154B18681EF006FB054670B1A368F9
S315080052201868FDB1114A12490DF012FBECE7A368A4
S31508005230104A222118680DF063FBE5E70E4B02229F
S315080052401A70E02008F084F80C4B1B88102BE6D166
S315080052500B4B1B780F2BE2D1094B18221A707022C0
S315080052605A70DCE7074ADEE7805D0020D41203089F
S31508005270E01203080412030855130020FC1200204C
S31508005280A4090020541203082DE9F04385B004460A
S315080052908268C36852F823100D78591C52F82110F9
S315080052A091F80080991C52F821100F78D91C52F8F1
S315080052B021100E784168C91A04293ADD043352F8D8
S315080052C0233093F80090B9F1000918BF4FF001098F
S315080052D0002D31D12946B8F1000F01D041F0040163
S315080052E00FB141F002010EB141F00101B9F1000F11
S315080052F001D041F020011A4B18681EF0FDFAE8B9F2
S31508005300A36818680DB3174AB8F1000F1FD0154BDC
S31508005310FFB11449FEB1134CB9F1000F1DD0114D60
S3150800532002950194009110490DF092FA05B0BDE876
S31508005330F0834FF00009CBE70821CCE7A3680B4AB6
S31508005340232118680DF0DCFAF0E7094ADCE7084B78
S31508005350DEE70749DEE7064CDEE7054DE0E700BF76
S31508005360805D00205412030814130308EC12030886
S31508005370D412030838B504468368C26853F8223045
S315080053801D78291E18BF01210A4B18681EF080FADD
S3150800539038B9A36818685DB1074A08490DF058FA84
S315080053A038BDA368064A242118680DF0A9FAF7E75C
S315080053B0044AF2E7805D00205412030888130308A4
S315080053C064130308D412030838B504468368C26810
S315080053D053F822301D78291E18BF01210A4B186878
S315080053E01EF046FA38B9A36818685DB1074A084935
S315080053F00DF02EFA38BDA368064A242118680DF068
S315080054007FFAF7E7044AF2E7805D002054120308A2
S31508005410C01303089C130308D412030810B50446E6
S315080054208068E36850F8232011886268D21A012A36
S3150800543011DD013350F823301A78084B18681EF02E
S3150800544005FAA3681C6803F03FFD02460449204696
S315080054500DF0FEF910BD0022EFE700BF805D0020C9
S31508005460D413030810B504468068E36850F823206F
S3150800547011886268D21A012A11DD013350F82330E7
S315080054801A78084B18681EF0E7F9A3681C6803F039
S315080054901BFD0246044920460DF0DAF910BD00222C
S315080054A0EFE700BF805D0020E813030810B582B05F
S315080054B0044600230BE0A168E2681A4451F822204A
S315080054C0117803F108026A4402F8081C0133072B15
S315080054D0F1DD6368E2689B1A082B14DDA3680832BD
S315080054E053F822301A786946084B18681EF0BAF93C
