S0140000464732335F7261696C746573742E73333727
S3150800000000080020AD140008A1E40108A1E40108D5
S31508000010E5FE0108A1E40108A1E40108A1E401083C
S31508000020A1E40108A1E40108A1E40108A1E401088A
S31508000030A1E40108A1E40108A1E40108A1E401087A
S31508000040A1E40108A1E40108A1E40108A1E401086A
S31508000050A1E40108A1E40108A1E40108A1E401085A
S31508000060A1E40108A1E40108A1E40108511200086D
S3150800007041120008A1E40108A1E40108A1E401086D
S31508000080A1E40108A1E40108A1E40108A1E401082A
S31508000090A1E40108A1E40108C51C0008A1E40108BF
S315080000A0A1E40108A1E40108011E0008D91D000801
S315080000B0A1E40108A1E40108E5630108D16D01087E
S315080000C0150B0208110B0208B1650108210B02087D
S315080000D0190B0208A96D01081D0B0208356E0108E7
S315080000E0716E0108A1E40108A1E40108A1E4010870
S315080000F0A1E40108DFF90108A1E40108A1E4010867
S31508000100A1E40108A1E40108A1E40108A1E40108A9
S31508000110A1E40108A1E40108A1E40108A1E4010899
S31508000120A1E40108A1E40108A1E40108A1E4010889
S31508000130A1E40108A1E40108A1E40108A1E4010879
S31508000140A1E40108A1E40108A1E40108A1E4010869
S31508000150A1E40108A1E401081500020821BE01086E
S31508000160A1E40108A1E401089B240208A1240208CD
S31508000170013800D0FCE770472DE9F04F2DED028BD2
S3150800018091B082460C4693461D46DDE91C2310466F
S3150800019019461CF0B1FA002800F007814FF0FF322B
S315080001A0B14BDDE91C011CF0CFFA002840F0FD80B8
S315080001B04FF0FF326FF48013DDE91C011CF0A6FA3C
S315080001C0002840F0F28000220023DDE91C011CF023
S315080001D09DFA002840F0FE809DED1C7B8DED067B88
S315080001E0209B13F480630F9301D106231E93DDE948
S315080001F006010246C1F30A50C1F31303904643F0C1
S315080002007F5949F44019A0F2FF301BF0A3FF84A3DD
S31508000210D3E900231CF008F883A3D3E900231BF0D5
S315080002204DFE06460F460022904B404649461BF0B7
S3150800023043FE7FA3D3E900231BF0F6FF02460B46D5
S31508000240304639461BF03AFE1CF088FA06461BF083
S3150800025081FF8046894678A3D3E900231BF0E4FF93
S315080002600022834B1BF02AFE1CF078FA074674A37B
S31508000270D3E90023404649461BF0D6FF8046894607
S3150800028038461BF067FF70A3D3E900231BF0CCFFA9
S3150800029002460B46404649461BF00EFE80468946F6
S315080002A002460B461BF0C0FFCDE90A0107F2FF37ED
S315080002B000210022CDE908123B0509930023089383
S315080002C042464B46404649461BF0F8FDCDE90C012F
S315080002D042464B4600204FF080411BF0EDFD80461C
S315080002E089460022634BDDE90A011CF0C7F80022A3
S315080002F0614B1BF0E3FD02460B46DDE90A011CF0E3
S31508000300BDF800225D4B1BF0D9FD02460B46DDE920
S315080003100A011CF0B3F802460B46404649461BF054
S31508000320CDFD02460B46DDE90C011CF0A7F80022BC
S31508000330534B1BF0C3FDDDE908231BF075FF804610
S31508000340894649EC188BDDE906231CF0FDF940B116
S31508000350013E0022484B404649461CF08FF841ECC6
S31508000360180B06F16303C62B3FD80427209B13F40A
S31508000370006F44D036A3D3E90023DDE90689404659
S3150800038049461CF0D7F900283FD033A3D3E9002308
S31508000390404649461CF0BAF9002836D01E9BB3429F
S315080003A025DD9E1B731E1E9323E0209B04931F9B33
S315080003B003931E9B02939DED1C7B8DED007B2B46C4
S315080003C05A462146504600F0CFF811B0BDEC028BD4
S315080003D0BDE8F08F9FED227B8DED067B1C9B069377
S315080003E01D9B03F100430793FAE60527BEE70023A2
S315080003F01E93209B43F48063209300273E461F9B51
S315080004009F423FD2A3EB07083EE01E9B002BF6D087
S315080004100F9B002BF3D01E9B013B1E93EFE700BFFB
S31508000420FB799F501344D33FB3C8608B288AC63FD5
S3150800043061436F63A787D23F71A379094F930A4037
S315080004401655B5BBB16B0240EF39FAFE422EE63FB0
S315080004502D431CEBE2361A3F0000000080842E4133
S315080004600000000000000000FFFFEF7F0000F83FDB
S315080004700000E03F00002C40000024400000184027
S315080004800000F03F4FF00008209B13F0020902D04D
S315080004900FB14FF000083EB153EC182BDDE9060109
S315080004A01BF0ECFFCDE9060100220023DDE91C0163
S315080004B01CF02CF900283DD1209B23F400630493FB
S315080004C0CDF80C801E9B02939DED067B8DED007B7F
S315080004D02B465A462146504600F046F8002F3FF470
S315080004E074AF209B13F0200F2CD04FF0450C00F171
S315080004F001082B46024621466046D04786EAE6733F
S31508000500A3EBE67305220592013F049700220392A6
S315080005100A220292F00F019000932B46424621468A
S3150800052050461FF073FFB9F1000F3FF44EAF024675
S315080005301F9F10E0DDE90601024601F10043CDE9FF
S315080005400623B9E74FF0650CD1E7561C2B46214622
S315080005502020D0473246A2EB0B03BB42F5D3104608
S3150800056033E700BF000000002DE9F04F2DED028BA8
S3150800057095B007900A9192469B46DDE92089229D0F
S3150800058042464B46404649461CF0B6F8002840D03D
S315080005904FF0FF326FF48013404649461CF0B6F818
S315080005A0002845D14FF0FF329F4B404649461CF084
S315080005B0CBF800284BD198A3D3E9002340464946F7
S315080005C01CF0C2F800285AD195A3D3E90023404667
S315080005D049461CF09BF8002851D1002200234046CA
S315080005E049461CF093F8002857D100230B93249B07
S315080005F013F4806F5CD000241F2C5BD8092D59D9C1
S3150800060004F150036B44302203F8202C013D0134D9
S31508000610F2E7249B0393239B029303230193834BC3
S3150800062000935B4652460A9907981FF014FE2CE180
S31508000630249B0393239B0293042301937C4B0093EF
S315080006405B4652460A9907981FF005FE1DE1249B52
S3150800065013F004030FD0774A7BB10423249903913E
S3150800066023990291019300925B4652460A9907988C
S315080006701FF0F1FD09E1704AEEE70323EEE7249B3C
S315080006800493239B03930295CDE900895B46524662
S315080006900A990798FFF770FDF7E042464B46002097
S315080006A000211BF009FC8046894601230B939EE72F
S315080006B00625A0E7404649461CF050F806461BF0BA
S315080006C049FD02460B46404649461BF0F5FB5B4B87
S315080006D003EBC50393ED008B53EC182B1BF0A4FD1D
S315080006E002460B46CDE908231CF060F807461BF0C6
S315080006F021FD02460B46DDE908011BF0DDFB02463B
S315080007000B46CDE9082300224D4B1CF01DF850B3CB
S31508000710013738461BF00EFD02460B4651EC180B06
S315080007201BF0FEFF08B10136002755BB30461BF00B
S3150800073011FD02460B46404649461BF0BDFB0746DF
S31508000740884600223E4B1BF0E1FF38B100223C4BA5
S31508000750384641461BF0F8FF002842D016F0010F34
S315080007603FD001363DE00022354BDDE908011BF09C
S31508000770CDFF0028D9D117B117F0010FD5D0013711
S31508000780D3E71F2C17D8013D2E4BA3FB0723DB0805
S31508000790194603EB8303A7EB4303621C303304F1CA
S315080007A050000DEB000404F8203C092F02D90F462F
S315080007B01446E6E714461F2C0AD86B1E45B104F109
S315080007C050026A44302102F8201C1D460134F2E723
S315080007D01F2C06D804F150036B442E2203F8202C54
S315080007E001341F2C33D8184A82FB0632F317C3EBA1
S315080007F0A2031A4603EB8303A6EB4303611C3033BB
S3150800080004F150000DEB000404F8203C1646EAB14A
S315080008100C46E6E7AFF300800000000065CDCD4149
S315080008200000000065CDCDC1FFFFEF7F9C110308D6
S31508000830A01103089411030890110308A8110308CE
S315080008400000E03FCDCCCCCC676666660C46249BA0
S3150800085003F00303012B1DD01F2C09D80B9B002B7B
S3150800086035D004F150036B442D2203F8202C0134B3
S31508000870249B0393239B029301940CAB00935B4642
S3150800088052460A9907981FF0E6FC15B0BDEC028B94
S31508000890BDE8F08F239BB3B10B9B1BB9249B13F0C8
S315080008A00C0F12D0239B013B2393194606E004F153
S315080008B050036B44302203F8202C01348C42CBD2EF
S315080008C01F2CF4D9C8E72399F8E72399F6E7249B60
S315080008D013F0040F07D004F150036B442B2203F8DE
S315080008E0202C0134C4E7249B13F0080FC0D004F170
S315080008F050036B44202203F8202C0134B8E700BFCC
S3150800090038B508462DED028B15461BF013FC1FA3C0
S31508000910D3E900231BF0B2FD02460B4643EC182B25
S31508000920002200231BF0FCFE044648BBB0EE480A32
S31508000930F0EE680A00F03CF816A3D3E9002351EC60
S31508000940100B1BF0BBFA02460B4614A1D1E90001B5
S315080009501BF094FD13A3D3E900231BF0ADFA002284
S31508000960094B1BF061FC41EC100B1DF0FFFB51EC31
S31508000970100B1BF0F3FE28802046BDEC028B38BD19
S315080009800120FAE7AFF300800000204000000000D5
S31508000990006AF8409679D0187A2C2C40000000009E
S315080009A00068B04066666666661271400000000020
S315080009B038B555EC104B2DED028B00F03DF822466C
S315080009C02B4620462946B0EE408AF0EE608A1DF096
S315080009D021FC98B900220023204629461BF0B4FEC4
S315080009E060B900220023204629461BF085FE60B127
S315080009F01CF038FD22239FED0C8B0360B0EE480AED
S31508000A00F0EE680ABDEC028B38BD1CF02BFD2122E6
S31508000A1003460748BDEC028B1A60BDE8384000F073
S31508000A2023BA00BFAFF30080000000000000F0FF0B
S31508000A30D41003080000000051EC100BB1F5801F1C
S31508000A402DE9F04F0F462DED028B85B054DA21F0D3
S31508000A50004310EE102A034300F0F4800029C0F288
S31508000A6034810022DC4B1BF0DFFBDC4A0F466FF0BB
S31508000A703504974244DC3B15C7F31307D84AA3F25B
S31508000A80FF36D84B3B44264403F480135A4006EB02
S31508000A901356D34B42EA070100221BF00DFABB1C82
S31508000AA082468B46C3F31303022B34DC0022002351
S31508000AB01BF022FE002800F0D280002E00F05C8198
S31508000AC030461BF047FB06460F46ADA3D3E9002385
S31508000AD01BF0AAFB04460D4630463946AAA3D3E9BD
S31508000AE000231BF0A1FB02460B46204629461BF0B5
S31508000AF0E5F941EC100B09E0B84A00249742BADD43
S31508000B0002460B461BF0DAF941EC100B05B0BDECBA
S31508000B10028BBDE8F08FB44B0022FB1801934FF00F
S31508000B2080431BF0CBF902460B46504659461BF04C
S31508000B30A5FC41EC180B30461BF00CFB53EC182BAC
S31508000B40CDE9020151EC180B1BF06EFB02460B4671
S31508000B50804689461BF068FB04460D468CA3D3E9FC
S31508000B6000231BF061FB8CA3D3E900231BF0A6F935
S31508000B7022462B461BF058FB89A3D3E900231BF01A
S31508000B809DF922462B461BF04FFB87A3D3E900238A
S31508000B901BF094F942464B461BF046FB80468946B5
S31508000BA02046294682A3D3E900231BF03DFB82A3F6
S31508000BB0D3E900231BF082F922462B461BF034FBAF
S31508000BC07FA3D3E900231BF079F922462B461BF0B5
S31508000BD02BFB0B460246494640461BF06FF9834BF2
S31508000BE089460199DB1B80460B43002B5FDD0022FB
S31508000BF07F4B504659461BF017FB52465B461BF087
S31508000C0013FB04460D46002E69D122462B46404664
S31508000C1049461BF053F953EC182B1BF005FB02460B
S31508000C200B46204629461BF047F902460B46504616
S31508000C3059461BF041F941EC100B05B0BDEC028B8F
S31508000C40BDE8F08F0022002300206A491BF016FC3D
S31508000C5041EC100B05B0BDEC028BBDE8F08F5AA332
S31508000C60D3E90023504659461BF0DEFA02460B46E6
S31508000C7000205F491BF020F904460D4652465B46A4
S31508000C80504659461BF0D0FA02460B4620462946DE
S31508000C901BF0CAFA04460D46002E59D102460B46E9
S31508000CA0504659461BF008F941EC100B2EE7002E6A
S31508000CB040F0A28042464B46504659461BF0FCF887
S31508000CC053EC182B1BF0B0FAAFE70B461BF0F4F801
S31508000CD0002200231BF0D2FB41EC100B16E728A3D9
S31508000CE0D3E90023DDE902011BF09EFA22462B46D2
S31508000CF006460F46404649461BF0E0F853EC182BCB
S31508000D001BF092FA804689461FA3D3E90023DDE942
S31508000D1002011BF089FA02460B46404649461BF07B
S31508000D20CDF802460B46204629461BF0C5F8524622
S31508000D305B461BF0C1F802460B46304639461BF0A7
S31508000D40BBF841EC100B05B0BDEC028BBDE8F08F8B
S31508000D5030461BF0FFF98046894609A3D3E90023EC
S31508000D601BF062FA06460F464046494606A3D3E9F3
S31508000D7000231BF059FAD4E79FED150BC6E600BF12
S31508000D800000E0FE422EE63F763C7935EF39EA3D33
S31508000D9044523EDF12F1C23FDE03CB966446C73F9C
S31508000DA0599322942449D23F935555555555E53FB5
S31508000DB09FC678D0099AC33FAF788E1DC571CC3FC0
S31508000DC004FA97999999D93F555555555555D53F8B
S31508000DD0000000000000000000005043FFFFEF7F06
S31508000DE00000F03F645F090086EBF9FF51B8060082
S31508000DF00000E03F000050C317A3D3E90023DDE954
S31508000E0002011BF011FA42464B4604460D4650466F
S31508000E1059461BF051F853EC182B1BF005FA0646F9
S31508000E200F460FA3D3E90023DDE902011BF0FCF905
S31508000E3002460B46304639461BF03EF852465B469C
S31508000E401BF03AF802460B46204629461BF034F8B2
S31508000E5041EC100B5AE600BF0000E0FE422EE63FCA
S31508000E60763C7935EF39EA3D9FED010B704700BFB7
S31508000E70000000000000F87F10B5054C237833B950
S31508000E80044B13B1044800E000BF0123237010BDD2
S31508000E90A8120020000000007875030808B5034B67
S31508000EA01BB10349034800E000BF08BD000000006D
S31508000EB0AC12002078750308A3F5803A704700BF86
S31508000EC0174B002B08BF134B9D46FFF7F5FF002174
S31508000ED08B460F461348144A121A21F074FB0E4B20
S31508000EE0002B00D098470D4B002B00D098470020C8
S31508000EF0002104000D000D48002802D00C4800E02F
S31508000F0000BF1BF079FE200029001DF09BF91BF09D
S31508000F104DFE00BF000008000000000000000000B1
S31508000F20000800209C0F0020DC650020000000005F
S31508000F300000000000B585B0094B1868094B186019
S31508000F40094B0A4A13600A4A01920A4A126802922F
S31508000F50039301A91DF0FCFF05B05DF804FB00BF73
S31508000F601C080020144C002010080020104C0020FB
S31508000F70B8AC02082C08002008B5024B18681DF00A
S31508000F80FFFF08BD1C08002038B50EF0A1FD044679
S31508000F90064D2B68D3F8B0020EF08EFD28681EF0B9
S31508000FA00CF820460EF088FD38BD00BF1C0800204E
S31508000FB0044B1B68834202D0034B186870470148EC
S31508000FC0704700BFA8150020A415002008B50948D9
S31508000FD0094B1860094B1B6803600A23C360084B5A
S31508000FE04361084B8360084B4360002303761EF079
S31508000FF0ECFC08BDA8150020A41500201C0800203C
S31508001000C8150020CCAC0208D8AC020808B501F017
S31508001010CFFA1DF0EBFC264A136F23F0070343F0C3
S315080010200303136701F028FD224B9B6A13F0807FA8
S3150800103003D1214B4FF480329A621D4BD3F82021FD
S3150800104022F0070242F00202C3F82021D3F8282131
S3150800105022F0070242F00202C3F82821D3F8402101
S3150800106022F0030242F00202C3F84021D3F86021BD
S3150800107022F0030242F00202C3F86021D3F84022AC
S3150800108022F0030242F00202C3F84022D3F80022FB
S3150800109022F0070242F00202C3F80022D3F808221F
S315080010A022F0070242F00202C3F80822002008BD17
S315080010B0008000500040005A0060005A10B5224BCC
S315080010C05A6E02F4803203F580514FF48030486638
S315080010D0586E4FF000434B661C4B596C01F00101EA
S315080010E04AF6CD341C64194B5B6B13F0010FFAD129
S315080010F0174B01245C60154B1B6B13F0010FFAD0DC
S3150800110011B1124B13491964002803DB124B4FF037
S31508001110004159661AB9104B4FF480325A660EF0E0
S315080011207BFB1DF04AF90EF0EBFA0EF05FFB1EF0A2
S3150800113052FC0EF011FBFFF769FF0EF0F9FA1DF0ED
S3150800114032F90FF0C1F910BD008000500040095077
S31508001150006009503254FFFF00A00050022907D84A
S3150800116008B5044B1B68186808B1436A984708BD58
S31508001170704700BF2808002030B59FB0254C0DF1F8
S31508001180580CA646BEE80F00ACE80F009EE80F0014
S315080011908CE80F00302200210AA821F014FA1E4B11
S315080011A00A9301228DF82D2056230C9308230F93BA
S315080011B0092311930A23139308AB203494E80300F8
S315080011C083E803000DF1080C0024029403940494A8
S315080011D00594069407948CE803000B238DF81030C9
S315080011E00C238DF811300D4B0593202306938DF8AB
S315080011F01C200B4B00930AAB16AA614609480EF051
S31508001200DBFC054621464FF4E1301DF03AF9284645
S315080012101FB030BDE8AC02080000015B401B00208F
S31508001220C81A0020601B002008B5034903480FF0C0
S31508001230AFF9FFF7A1FF08BD20080020381B0020E2
S3150800124008B502481EF048FC08BD00BF601B002018
S3150800125008B502481EF040FC08BD00BF601B002010
S3150800126008B5024B1A6A1868904708BD601B00202B
S3150800127010B58AB000230693079308930993254B64
S315080012800693254906A815F001FF244B186030B1CE
S315080012900023059305A920F003F808B1FEE7FEE749
S315080012A01E4C1F4A1F4B1968206816F051FA002178
S315080012B020681DF013FE00B1FEE74FF00111174B31
S315080012C018681FF070FF00B1FEE7174A40F23F2387
S315080012D0CDE900234FF0FF324FF0FF330F4908687E
S315080012E01FF078FD00B1FEE7104B1B88ADF81030F3
S315080012F0ADF80C3004A9094B18681FF048FD00B179
S31508001300FEE703A9054B18681FF059FD00B1FEE773
S315080013100AB010BD5DE3010841E30108300800206A
S3150800132049E3010808080020EFFFF3FF10AD0208A3
S3150800133082B0054B019302AB03EB800050F8043CE6
S31508001340186802B0704700BF3008002000B583B0A7
S3150800135002218DF80010002205481DF039F8019089
S31508001360082168461DF040F803B05DF804FB00BF8D
S31508001370006A1800024B1022C3F8A020704700BF6D
S3150800138000E00350024B1022C3F8A020704700BFAC
S3150800139000D0035070B588B001AC3F4D0FCD0FC4D7
S315080013A095E8070084E8070001213A2000F0F6FFD7
S315080013B00121292000F0F2FF01248DF81240374B55
S315080013C00393374E01A930461DF003FC2346042239
S315080013D02146022001F0F6FF002322460221084694
S315080013E001F0F0FF234604220321022001F0EAFF60
S315080013F0234604221146022001F0E4FF294D2A4B18
S31508001400C5F8AC374FF00213C5F8A837A3F58033F3
S31508001410C5F8B0371C23C5F898374FF448700FF055
S3150800142047FFFFF7A7FF14200FF042FFFFF7AAFFB9
S3150800143023200FF03DFFFFF79DFFB92130461DF031
S3150800144016FCFFF79FFF00231A462146022001F0EB
S31508001450B9FF00231A460221084601F0B3FF2346C6
S3150800146000220321022001F0ADFF234600220421B9
S31508001470022001F0A7FF304602F06CF90021C5F8FA
S31508001480AC17C5F8A817C5F8B017C5F898172920D6
S3150800149000F084FF08B070BD14AD020800127A008F
S315080014A000C0055000C003500200030008B500F054
S315080014B02DF8124A0AE01068516850F8230041F8DE
S315080014C02300013391688B42F5D30C320C4B9A42B8
S315080014D001D20023F6E70B4A08E01168002041F81C
S315080014E02300013351688B42F7D30832064B9A42E0
S315080014F001D20023F6E7FFF7E3FC00BF8075030877
S315080015008C7503088C7503088C75030810B4144B86
S31508001510144A9A60D3F8882042F47002C3F88820E7
S31508001520114A4FF480419166104901F500524FF077
S31508001530FF3010660E4850660220C3F8D000BFF38D
S315080015404F8FBFF36F8F0B480124C0F880414FF4CB
S315080015504033D36004600B615DF8044B704700BFED
S3150800156000ED00E0000000080090005000800044F4
S315080015707FFF7F0100E100E0014B1868704700BF5C
S315080015803808002008B5094B1B6F03F00703022B28
S3150800159004D0032B05D0012B06D0FEE7FFF7ECFF9E
S315080015A003E0034B186800E0024808BD00800050BD
S315080015B03C080020002D310108B5FFF7E3FF054B75
S315080015C01B6FC3F303330133B0FBF3F0024B186010
S315080015D008BD00BF0080005034080020004870474E
S315080015E000B4C404014B1868704700BF3C080020CB
S315080015F008B5064B1860064B1B6F03F00703032B51
S3150800160000D008BDFFF7D8FFFBE700BF3C08002065
S315080016100080005000487047002D31014FF0B44358
S315080016209868C0F304400C2808D8DFE800F00907DA
S315080016300707070722181A071C1E200000207047F4
S315080016404FF0B4439B6803F04073B3F1807F12D028
S31508001650B3F1007F11D003B17047094870470948B4
S31508001660704709487047094870470948704709484C
S31508001670704709487047094870470948ECE700BFB2
S3150800168000093D000024F400C0EA210180BA8C015B
S315080016900048E801005A6202405DC60080841E00C8
S315080016A040420F00014B1868704700BF40080020F1
S315080016B0F0B18446F1B110B409E004F120030FE05B
S315080016C02030181A18D1BCB10CF1010C01319CF864
S315080016D000400B4BE35C03F00303012BEDD02346DC
S315080016E00878074A825C02F00302012AE9D1E7E793
S315080016F001207047012070475DF8044B704700BF12
S31508001700097303080346064A10680344054A9342C8
S3150800171002D8034A136070474FF0FF30704700BF86
S31508001720440800200000012008B501213A2000F0F5
S3150800173035FE012304220321002001F043FE002088
S315080017401DF0C9F9224B0122C3F844244FF46070F6
S315080017501CF066FF1F4BD3F8F02042F00102C3F8D5
S31508001760F020D3F8FC2042F08072C3F8FC20A3F5E1
S315080017705D43194A1A6000F5D52000F2FC40C008FE
S31508001780164BA3FB0030800A0138154B186102225C
S31508001790C3F8F0204FF48072C3F804234FF0604377
S315080017A0104AC3F8B02F104AC3F8802ED3F8002E7B
S315080017B042F48072C3F8002EFF2283F82020D3F863
S315080017C0002E22F48072C3F8002E002008BD00BF48
S315080017D000D0035000ED00E0FF03004017916502BA
S315080017E0000004E055CEACC5090001004FF0604387
S315080017F0D3F8803E13F0010F01D1112070470E4A2D
S31508001800D2F8FC3043F08073C2F8FC304FF06043E6
S31508001810D3F8002E4FF0010C0CFA00FC42EA0C0239
S31508001820C3F8002E53F82030002BE8D04FF0604361
S3150800183003F820100020704700ED00E0F0B585B0F1
S315080018400C4694469DF83410664A1278002A00F031
S31508001850BD800546BCF1070F00F2BA800A9A002A35
S3150800186000F0B8800B9A002A00F0B6800E9AB2F5FE
S31508001870006F00F3B38001285BD05B4A02EB0C12C1
S31508001880127B002A00F0AC8000220092019202929C
S315080018900392564A02EB4C1E002C4FD14FEA4C16C7
S315080018A000209051CEF80400CEF80800CEF80C00BF
S315080018B09EF8020040F010008EF802009EF8030021
S315080018C040F030008EF8030021B9C1B241F003019F
S315080018D08EF8031000930E9B013B444A4FEA4C10C6
S315080018E002EB4C11165A63F30E1616520A9B8B60BE
S315080018F00B9B4B60CB789DF83C2062F38303CB703F
S31508001900012D36D0109B002B56D0374A4FEA0C11C2
S3150800191002EB0C1310985050119A5A6000249C60E0
S315080019205D7372466946604601F016FE204605B0AC
S31508001930F0BD0C9A002AA0D12D48F8E72B4F4FEAA4
S315080019404C1607EB4C120020B85150609060D060DE
S31508001950907840F010009070D07840F00300D07076
S315080019600029B7D107EB4C12C1B241F03001D17052
S31508001970B0E70E460A7B42F001020A73D2B242F081
S3150800198002020A73CA68042161F39F02F26006F133
S31508001990100796E80F0087E80F00F2696FF0030159
S315080019A061F39F02F2610C9B7361012CAAD10B9A19
S315080019B0B2610C9A7260A5E7002DA6D10B4B03EB1A
S315080019C04C139A786FF304129A709EE70948AEE7AB
S315080019D00748ACE70648AAE70548A8E70448A6E783
S315080019E00548A4E770650020841B0020041C00201D
S315080019F0018000F0028000F0078000F0134B1B788E
S31508001A00FBB110B50446F0B11DF003F80023072B0F
S31508001A1013D80F4A02EB0312127B0AB10133F6E719
S31508001A2023600B4A190102EB031301241C730024DB
S31508001A3054501CF0F4FF204602E01CF0F0FF054865
S31508001A4010BD054870470548FAE700BF70650020D5
S31508001A50841B0020048000F0028000F0018000F062
S31508001A6038B51CF0D6FF04460023072B06DC0C4AC3
S31508001A7002EB0312127B12B90133F6E7002222B1F8
S31508001A8020461CF0CCFF074838BD01F007FD0025AD
S31508001A90054B1D7020461CF0C2FF2846F4E700BF20
S31508001AA0841B0020058000F0706500200F4B1B7812
S31508001AB0BBB110B50446072815D81CF0AAFF0C4B75
S31508001AC003EB04131B7B1BB91CF0A9FF09480BE0A9
S31508001AD0074B03EB041300241C731CF0A0FF2046DD
S31508001AE002E005487047054810BD00BF7065002034
S31508001AF0841B0020068000F0028000F0018000F0C0
S31508001B0000B583B0134B1B68019300238DF804308E
S31508001B101CF07FFF104B1B7833B90F4B01221A704C
S31508001B201CF07DFF002309E01CF079FF0B480EE04E
S31508001B300B4A02EB0312002111730133072BF7DD61
S31508001B4008238DF8073001A801F0D4FC002003B063
S31508001B505DF804FB30AD020870650020038000F0D4
S31508001B60841B002008B50A4B1B785BB107280BD8E5
S31508001B70084B03EB00131B7B43B1002101F0ACFCBF
S31508001B80002008BD0448FCE70448FAE70448F8E7DB
S31508001B9070650020841B0020028000F0018000F0A0
S31508001BA0078000F008B50A4B1B785BB107280BD8ED
S31508001BB0084B03EB00131B7B43B1012101F08CFC9E
S31508001BC0002008BD0448FCE70448FAE70448F8E79B
S31508001BD070650020841B0020028000F0018000F060
S31508001BE0078000F008B50A4B1B7853B107280AD8B6
S31508001BF0084B03EB00131B7B3BB101F0F7FC0020FD
S31508001C0008BD0548FCE70548FAE70548F8E700BFB8
S31508001C1070650020841B0020028000F0018000F01F
S31508001C20078000F00F4B1B78A3B1072814D8A9B179
S31508001C300D4B03EB00131B7B93B10C4B1B6D012261
S31508001C4002FA00F0184002D00A70002070470023FC
S31508001C500B70704706487047064870470548704736
S31508001C600548704770650020841B0020000004505A
S31508001C70028000F0018000F0078000F00C4B1B7812
S31508001C8073B110B50C4607280CD869B1094B03EB9C
S31508001C9000131B7B53B101F0BBFC2070002010BD64
S31508001CA0054870470548FAE70448F8E70448F6E7A0
S31508001CB070650020841B0020028000F0018000F07F
S31508001CC0078000F0F8B5194B1F6D5B6D1F4002D4F5
S31508001CD00125002402E0FEE701346D00072C24D814
S31508001CE03D42F9D0124B1D652301124AD358002BE9
S31508001CF0F2D002EB0416B1680131B1607268204671
S31508001D00984780F00100C0B2737B012BE4D100280C
S31508001D10E2D0094B03EB44131A7B6FF341021A73A3
S31508001D201A7F6FF341021A77D6E7F8BD0000045010
S31508001D3000200450841B0020041C002010B5044613
S31508001D4002E0202007E09047DCB194FAA4F00028CE
S31508001D50F7D0B0FA80F00123834024EA0304094B44
S31508001D6003EB00135A68002AEED0064B03EB001368
S31508001D701B7B002BE7D0034B03EB001399689047B6
S31508001D80E2E710BD041D002008B51A2000F092FEF7
S31508001D9028B1084B4FF08062C3F880211A601B20D7
S31508001DA000F088FE28B1034B4FF00062C3F880218B
S31508001DB01A6008BD00E100E038B505460C461CF07F
S31508001DC028FE044B03EB05135C6000221A731CF013
S31508001DD026FE38BD041D002008B5084BD3F8240498
S31508001DE0D3F82024104000F0553020F0502003F599
S31508001DF00053C3F82004FFF7A1FF08BD00C0035035
S31508001E0008B5084BD3F82404D3F82024104000F072
S31508001E10AA3020F0A02003F50053C3F82004FFF7EA
S31508001E208DFF08BD00C00350024B4FF480321A677D
S31508001E30704700BF0090005038B505460C46174B52
S31508001E40D3F8200100F00700062823D8DFE800F0C1
S31508001E50040A0E16121A1E00012305B1286004B1E1
S31508001E60236038BDFFF788FB0523F6E7FFF7BAFBC3
S31508001E700323F2E7FFF7D2FB0723EEE7FFF7CAFBD8
S31508001E800223EAE7FFF778FB0623E6E7FFF7AAFB54
S31508001E900423E2E700231846DFE700BF008000506E
S31508001EA038B505460C46164BD3F8283103F0070318
S31508001EB0013B052B20D8DFE803F003131B0F0B1794
S31508001EC0FFF75AFB052305B1286004B1236038BD26
S31508001ED0FFF752FB0623F6E7FFF7A0FB0723F2E717
S31508001EE0FFF780FB0323EEE7FFF77CFB0423EAE713
S31508001EF0FFF790FB0223E6E700231846E3E700BF57
S31508001F000080005070B582B006460D460023019346
S31508001F10104BD3F8804104F00304022C16D0032C8E
S31508001F200FD0012C07D000240EB1019B336005B1F8
S31508001F302C6002B070BD002101A8FFF77DFF0F24B9
S31508001F40F2E7FFF76BFB01900724EDE7FFF762FB6B
S31508001F500190E9E70080005038B505460C460C4B61
S31508001F60D3F8903203F00303012B05D0022B07D1D7
S31508001F70FFF754FB072305E0FFF74CFB022301E0BC
S31508001F800023184605B1286004B1236038BD00BF98
S31508001F900080005030B583B005460C4600230193F7
S31508001FA0154BD3F8203203F00703042B21D8DFE8BA
S31508001FB003F0030B11161B0001230DB1019A2A60C9
S31508001FC004B1236003B030BD002101A8FFF768FF04
S31508001FD01123F2E7FFF722FB01900723EDE71CF038
S31508001FE062FA01900A23E8E7FFF75CFB01900923F0
S31508001FF0E3E70023E1E700BF0080005038B5054657
S315080020000C46104BD3F8400100F00300032815D8FE
S31508002010DFE800F002080C10012305B1286004B1BE
S31508002020236038BD1CF03FFA0A23F6E7FFF73AFBB0
S315080020300923F2E71CF03AFA0B23EEE700231846C9
S31508002040EBE700BF0080005030B583B005460C466C
S3150800205000230193144BD3F8603203F00703013BC6
S31508002060032B1FD8DFE803F0020E1914002101A87C
S31508002070FFF7E2FE0F230DB1019A2A6004B123602F
S3150800208003B030BD002101A8FFF7B8FF1023F2E71F
S31508002090FFF7C4FA01900723EDE7FFF7BBFA0190B3
S315080020A00223E8E70023E6E70080005030B583B056
S315080020B005460C46002301930C4BD3F8703203F007
S315080020C00303012B09D0022B0DD114230DB1019A5C
S315080020D02A6004B1236003B030BD002101A8FFF7D0
S315080020E08DFF1023F2E70023F0E700BF00800050C1
S315080020F038B505460C46134BD3F8000200F0070026
S3150800210004281BD8DFE800F003090D111500012388
S3150800211005B1286004B1236038BD1CF0C4F90A2350
S31508002120F6E7FFF7BFFA0923F2E71CF0BFF90B231E
S31508002130EEE7FFF741FA800A0E23E9E7002318467F
S31508002140E6E700BF0080005038B505460C46134B3D
S31508002150D3F8080200F0070004281BD8DFE800F0CF
S3150800216003090D111500012305B1286004B1236088
S3150800217038BD1CF098F90A23F6E7FFF793FA092306
S31508002180F2E71CF093F90B23EEE7FFF715FA800A3E
S315080021900E23E9E700231846E6E700BF0080005053
S315080021A038B505460C46104BD3F8400200F003003C
S315080021B0032815D8DFE800F002080C10012305B142
S315080021C0286004B1236038BD1CF06DF90A23F6E7D0
S315080021D0FFF768FA0923F2E71CF068F90B23EEE724
S315080021E000231846EBE700BF0080005038B50546C7
S315080021F00C460F4BD3F8503203F00303022B12D0D0
S31508002200032B08D0012B0AD00023184605B12860F5
S3150800221004B1236038BD1CF049F90B23F6E71CF01E
S3150800222042F90A23F2E7FFF73DFA0923EEE700BF72
S315080022300080005038B505460C46104BD3F86001AF
S3150800224000F00300032815D8DFE800F002080C1098
S31508002250012305B1286004B1236038BD1CF023F9B9
S315080022600A23F6E7FFF71EFA0923F2E71CF01EF920
S315080022700B23EEE700231846EBE700BF008000506B
S3150800228038B505460C46104BD3F8000100F003009C
S31508002290032815D8DFE800F002080C10012305B161
S315080022A0286004B1236038BDFFF79CF90323F6E7DD
S315080022B0FFF7F8F90923F2E71CF0F3F80823EEE72D
S315080022C000231846EBE700BF00800050B0F5207FDA
S315080022D020D00ED8B0F5007F16D020D810B1B0F5B2
S315080022E0C07F04D10F4B186FC0F3033018E00020ED
S315080022F016E0B0F5607F05D10A4BD3F88000C0F32D
S3150800230001100DE000200BE0064BD3F89000C0F357
S31508002310046005E0034B186FC0F3802000E000203E
S31508002320013070470080005038B505460C46174BFB
S315080023304FF480329A660020FFF7C8FF05FB00F0CD
S31508002340134BDA6902F4803241F67131D9635B685E
S3150800235023F440136CB90F49884207D800210B4370
S315080023600B494B600AB10022CA6338BD4FF480118D
S31508002370F5E7002C07DD0849884201D80021EEE779
S315080023804FF48011EBE74FF44011E8E70090005056
S3150800239000000350005A6202002D3101430905D09E
S315080023A0012B0ED0022B0ED0002200E0002200F0F6
S315080023B01F0051B102F58052012303FA00F01060A4
S315080023C07047034AF3E7034AF1E702F50052F3E7D9
S315080023D0648000506880005008B580201CF020F901
S315080023E0034B984203D8034B4FF480321A6708BD53
S315080023F0005A620200A0005000B583B00023019382
S31508002400B0F5807F00F0AF8011D9B0F5086F00F005
S31508002410B48044D9B0F5286F00F0C38069D9B0F507
S31508002420306F79D101A90020FFF796FD75E0802865
S3150800243073D8242871D324385C286ED8DFE800F0D6
S315080024404C4C4C4C4C6D446D98546D6D6D6D6D6D6A
S315080024506D6D6D6D6D986D6D6D39A76D6D6D6D6D6D
S315080024606D6D6D6D6D6D6D6DAC4C6D6D6D676D6D76
S315080024705FB1A277776D6D6D6D6D6D6D6D6D6D6DFF
S315080024806D6D6D6D6D6D6D6D6D6D6D6D6D6D6D6D6E
S315080024906D6D6D6D6D6D6D6D6D6D6D6D7C00B0F5F1
S315080024A0C06F65D00AD9B0F5E06F70D0B0F5F06F9F
S315080024B017D101A90020FFF7BDFE2EE0B0F5A06FE9
S315080024C060D0B0F5B06F04D101A90020FFF71AFD5E
S315080024D023E0B0F5806F20D101A90020FFF7ACFCFE
S315080024E01BE0B0F5D06F18D101A90020FFF700FE58
S315080024F013E0B0F5186F4FD0B0F5206F04D101A9DD
S315080025000020FFF7A1FD08E0B0F5106F05D101A97D
S315080025100020FFF719FE00E003D2019803B05DF82A
S3150800252004FBB0F5386F23D0B0F5406FF5D101A99B
S315080025300020FFF7B5FCF0E71C4B1B6F03F0070301
S31508002540013B032BE9D8DFE803F00B020508052356
S315080025500193E2E703230193DFE708230193DCE70E
S3150800256002230193D9E701A900201CF034F8D4E727
S3150800257001A90020FFF742FDCFE701A90020FFF7D8
S315080025807FFECAE701A90020FFF704FDC5E701A9F8
S315080025900020FFF705FEC0E701A90020FFF726FE89
S315080025A0BBE701A90020FFF781FDB6E700800050D0
S315080025B0044B4FF480125A66034B4FF480329A62EA
S315080025C0704700BF009000500050005A38B50446C6
S315080025D08020FFF711FF032800F0B880644B4FF402
S315080025E080125A66634B45F60E02C3F8802003F53F
S315080025F080524FF0A061916203F500534FF4803288
S315080026009A625C4B9B6D13F4803FFAD1594B9B6DD4
S3150800261013F0804FFAD1226863681B0543EA026308
S31508002620227B43EA0243627B43EA0233A27B43EA04
S315080026308213E27B13434F4D2B61AB6903F00043D2
S31508002640226943EA8263626943EA0263227E43EAB5
S315080026500243627E43EA0223A27E1343AB611CF067
S31508002660D1F9AA6B82F4006303F440635340AB6369
S315080026701CF0CCF92B6A23F00F03E269002A45D136
S3150800268011460B43E17E43EA81031343394A136239
S31508002690E369002B3CD1916A374B0B4094F8201024
S315080026A043EA411394F8211043EA011394F82410DD
S315080026B043EAC10343F4803393622E4B9A6D2F4B42
S315080026C09343FAD12B4A02F580514FF080738B62FF
S315080026D0136923F47003A06843EA005313614FF0AB
S315080026E000438B6194F822301BB9254B4FF080725A
S315080026F09A6294F8233013BB214B4FF480329A62C6
S315080027001C4B9B6D13F0804FFAD118E00821B8E7EF
S31508002710022B1CD0174A916A174B0B4094F82010CD
S3150800272043EA411394F8221043EA016394F824100B
S3150800273043EAC10394F8231043EA0143936294F8E9
S3150800274025301BB10B4B0F4AC3F8802038BD094D05
S3150800275000232B61AB611CF055F96A6B82F40853B0
S3150800276003F47F4353406B631CF050F9D2E700BF74
S31508002770009000500040005AC7FFFEFE030001000B
S315080027800060005AF1A7FFFF70B5174B9D6A9B6D55
S3150800279013F4803F03D0154B4FF480329A62124CE3
S315080027A004F580534FF080729A62A669C6F307262D
S315080027B01CF028F9A26A85EA020303F080735340E5
S315080027C0A3621CF023F9A36D13F4803F01D13046B0
S315080027D070BD1CF017F9A26A554005F480355540BE
S315080027E0A5621CF013F9F2E70040005A0050005A9F
S315080027F0014B1870704700BF720F0020014B93F908
S3150800280000007047720F002070B504461E4B9E6A82
S315080028109B6D13F4803F03D01C4B4FF480329A62B1
S315080028201A4B4FF080729A62FFF7E8FF001903D43B
S31508002830FF2802DDFF2000E00020134DAB6923F4DA
S315080028407F0323F47F4343EA00432402A4B22343CD
S31508002850AB611CF0D7F8AA6A86EA020303F0807314
S315080028605340AB621CF0D2F8AB6D13F4803F00D135
S3150800287070BD1CF0C7F8AA6A564006F48036564062
S31508002880AE621CF0C3F8F3E70040005A0050005A45
S3150800289010B51A4B9C6A03F580534FF480329A623E
S315080028A0164B9B6D03F00303032BF9D1134A02F56C
S315080028B080534FF080719962926D01221A650F4B11
S315080028C09B6D13F0020FFAD10C4B9B6D13F0020FA0
S315080028D0FAD00A4B9B6D13F0020FFAD01CF092F84F
S315080028E0064B9A6A544024F07E4424F47E04240C51
S315080028F0240454409C621CF089F810BD0040005A1C
S3150800290010B443784F2B28BF4F231A461C4B4FF45D
S315080029100001596603F5B8334FF4D151596203F5EE
S31508002920805102244C6003F5005301215960154B70
S315080029301B6913F4803FFAD1037842EA0323114A4C
S315080029405361416883681B0143EA0123017B43EA1B
S315080029504103417B0B439360817BC37B1B0143EAA5
S315080029604113017C43EA4103417C0B435360837C5A
S315080029701BB113466FF4D1525A625DF8044B704787
S315080029800090005000000250014B1880704700BFAD
S315080029901E0F0020014B1880704700BF1C0F002037
S315080029A0B0F5207F48D02DD8B0F5007F39D04CD867
S315080029B010B1B0F5C07F24D110B54C1E1BF029FE0E
S315080029C01CF00DF8FFF730FA204B196F21F470410F
S315080029D041EA04311967FEF7EFFD1D4BD3F8843041
S315080029E013F0100FF9D11A4BD3F88410C1F38111E3
S315080029F0C1F102011BF0E8FF00F02CF8FFF7ECFC30
S31508002A0010BD7047B0F5607F0AD101390F4AD2F878
S31508002A10803023F0300343EA0111C2F88010704772
S31508002A2070470139094AD2F8903023F0F85343EA3F
S31508002A300161C2F8901070470139044A136F23F4F4
S31508002A40806343EA81211167704770470080005010
S31508002A500040005008B54FF4C0701BF0E1FD054B6F
S31508002A60984205D902214FF42070FFF799FF08BD57
S31508002A700121F8E780F0FA0208B5FEF79DFD0C4B38
S31508002A80D3F8843013F0100FF9D1094BD3F884101A
S31508002A90C1F38111C1F102011BF096FF012100204B
S31508002AA000F0A0F8FFF7D6FFFFF796FC08BD00BFB9
S31508002AB0004000504209064B53F8223000F01F0030
S31508002AC023FA00F080F0010000F00100704700BF13
S31508002AD000E100E0044A536F23F44073417843EA67
S31508002AE001235367704700BF0040005010B50446E5
S31508002AF0094A136943F0040313610DF06DFF1BF0D7
S31508002B0091FF30BF1BF08FFF0DF07CFF04B110BDA5
S31508002B10FEF752FDFBE700BF00ED00E010B50446E6
S31508002B20074A136943F0040313610DF055FF30BFDC
S31508002B300DF068FF04B110BDFEF73EFDFBE700BFD0
S31508002B4000ED00E0034AD36E23F0300301790B430E
S31508002B50D366704700400050F8B50446204BD3F8BA
S31508002B60843013F0100FF9D11D4BD3F88430C3F31A
S31508002B7081139C422DD0FEF705FD0646012C11D087
S31508002B801BF040FF0546164F07F500534FF000723D
S31508002B905A6620461BF04CFF621E4FF48063934032
S31508002BA03B6706E001211BF00FFFE9E70C4BD3F862
S31508002BB084300B4B5B6E13F0007F05D1084BD3F8BE
S31508002BC0843013F0200FF1D028461BF01FFF022C8B
S31508002BD000D0F8BD002130461BF0F6FEF9E700BF2D
S31508002BE00040005010B50C46034650B1094A127809
S31508002BF012B1094A934208D921460220FFF7ACFFD1
S31508002C0010BDFEF7BFFC0346F0E721460120FFF79B
S31508002C10A3FFF5E7041F0020005A620208B50278F0
S31508002C20034B1A7001210020FFF7DCFF08BD00BF27
S31508002C30041F002010B5314B4FF000425A6603F5C9
S31508002C400B23596C01F001014AF6CD321A64D8B942
S31508002C502B4B5B6B13F00103FAD1294A526812F029
S31508002C60010F3FD0274A01205060254A126B12F007
S31508002C70010F04D1244A934201D80133F5E7224AC9
S31508002C80934231D8002425E000231D4A126B12F026
S31508002C90080F04D01C4A934201D80133F5E71A4AB3
S31508002CA0934224D8164B03F500522020906203F570
S31508002CB0805301225A60002300E00133104A926AC9
S31508002CC012F0200F02D1104A9342F6D90E4A9342C7
S31508002CD010D8002411B10A4B0C4A1A641EF0C8F821
S31508002CE0204610BD0024F5E74FF0FF34F2E76FF0F9
S31508002CF00104EFE76FF00104ECE700BF0090005015
S31508002D0000400950006009503F420F003254FFFF4F
S31508002D1070B5194BDC6E24F0030444F00204DD6E32
S31508002D2045F003054AF6E8521A661BF06BFE06469E
S31508002D301BF05CFE114A136F23F0070343F00103EF
S31508002D401367FFF799FE0020FFF774FF1BF06EFE6E
S31508002D501BF06DFE002303E0074AD466D5660133EF
S31508002D60032BF9DD044BDC6603F510239B6A30461A
S31508002D701BF04CFE70BD00BF0040005000800050A4
S31508002D8010B51A4B4FF000425A6603F50B235C6CDC
S31508002D9004F001044AF6CD321A6443785B0043F026
S31508002DA00103134AD363134B5B6B13F00B0FFAD172
S31508002DB0104A536823F4F873817843EA0113536081
S31508002DC0C178437943EA012393600179837943EA19
S31508002DD0012313610078FFF72DFF14B1054B064A4E
S31508002DE01A641EF045F8012010BD00BF009000507F
S31508002DF000400050004009503254FFFF10B50F281C
S31508002E0000D90F20124B5C6E03F580534FF0004239
S31508002E105A6603F50B235A6C02F001024AF6CD31C5
S31508002E2019640C4B5B6B13F0800FFAD109490B6AD6
S31508002E3023F00F03184308620AB1074A0A64002CF4
S31508002E4003DB064B4FF000425A661EF011F810BD20
S31508002E5000800050004009503254FFFF00A0005087
S31508002E6010B5134B5C6E03F580534FF000425A665B
S31508002E7003F50B235A6C02F001024AF6CD311964A8
S31508002E800C4B5B6B13F0800FFAD10A490B6A23F4DB
S31508002E90F85343EA002008620AB1074A0A64002C7C
S31508002EA003DB064B4FF000425A661DF0E1FF10BDEA
S31508002EB000800050004009503254FFFF00A0005027
S31508002EC0084B98420AD0084B984209D003F580432C
S31508002ED0984201D000207047582070475620704706
S31508002EE0572070470000015B00000A50436813F042
S31508002EF0010F19D0836813F0010F03D0036913F08B
S31508002F00010F09D00A238363436D13F0500FFBD1D9
S31508002F10836C13F0030FFBD100F5005301225A60AE
S31508002F20436813F0020FFBD1042307E000F5805332
S31508002F3004221A6100F500531A610B46591E002B2C
S31508002F40F4D1202303610023C360836041F20202A7
S31508002F50426183614FF4A0224262C36103628362C5
S31508002F60C3624363036500F500520249D1640363F3
S31508002F70704700BFFF3F0D0338B50446154608469F
S31508002F80E1B1A36813F0010F4ED06268B0FBF5F00B
S31508002F90013812F001023BD0636D13F0280FFBD104
S31508002FA0A36C13F0030F0FD1A36C13F0010F2BD1F1
S31508002FB0A36C13F0020F29D1002106E02046FFF783
S31508002FC07FFF1BF02DFBDCE70521636813F0010F7B
S31508002FD01FD0A36813F0010F03D0236913F0010F64
S31508002FE009D00A23A363636D13F0500FFBD1A36CBA
S31508002FF013F0030FFBD104F5005301255D606368E8
S3150800300013F0020FFBD104E00921DEE70621DCE715
S315080030100021236923F07F4343EA006020610AB355
S3150800302020461BF006FD1DE06368A36803F0E00375
S31508003030402B1DD017D9602B1ED0802B12D101230F
S31508003040400105FB03F3B0FBF3F020380B4B03EA12
S31508003050C000636D13F0010FFBD12063636D13F09D
S31508003060010FFBD138BD2BB1202BFBD10823E7E795
S315080030700623E5E71023E3E70423E1E7F8FF7F00EB
S3150800308070B504460D461646436823B1636DC3F30F
S315080030900B03002BFAD12046FFF728FF636923F4B8
S315080030A04C5323F00F036A7B1343EA8913432A8A96
S315080030B013436361A36823F0804323F0E2032A7B6A
S315080030C013432A7E13436A691343A360AB681BB98B
S315080030D0A36843F00043A360EA69002A71D0A36895
S315080030E0127A43EA8253A360A368EA69927A43EAAA
S315080030F04243A360A368EA69928802F4C042134374
S31508003100A360A368EA69527843EA8203A360A368C6
S31508003110EA69527B43EAC203A360A368EA69927B21
S3150800312043EA0213A360A368EA69927843EA822312
S31508003130A360EA699179D3795B0243EA8123E36064
S31508003140EB691B78012B01D0032B03D1E36843F00D
S315080031500403E360EB691B78023BDBB2012B4AD917
S315080031604A4B9C4264D04A4B9C4263D003F5804349
S315080031709C425BD04FF0FF3303F593735B0103F179
S31508003180A04303F5703302225A60EB695A7A04F5B4
S3150800319080539A62EB695B7A1BB1E36843F4006378
S315080031A0E360EB69DB7A63B1E36843F40043E36009
S315080031B0364B9C4240D0364B9C4244D0354B9C42C1
S315080031C048D03EB196F82030002B4AD004F58053FB
S315080031D001221A62052120461BF02BFCAA68002A48
S315080031E04ED1297820461BF024FCA36CDB4313F44C
S315080031F0405FFAD170BD254B9C4213D0244B9C42AC
S3150800320012D003F580439C420AD04FF0FF33A63311
S315080032105B0103F1A04303F5703302225A60B4E759
S315080032200223F4E70023F2E70123F0E70223A3E7EA
S315080032300023A1E701239FE7EB691B7B03F00F033C
S31508003240154A5366B7E7EB691B7B03F00F03124A6F
S315080032501367B3E7EB691B7B03F00F030E4AD367CB
S31508003260AFE7E36923F0090396F82220134396F89B
S315080032702120134343F0010304F58052D361A9E7E3
S3150800328069682046FFF778FEABE700BF0000015BE0
S3150800329000000A5000400A50009003502DE9F84FEC
S315080032A00C4615461E469DF828809DF82C70072A60
S315080032B044D84FEA8209032303FA09FA00FA09F9FE
S315080032C01BF0A0FB384AD2F8001489EA010303EA86
S315080032D00A034B40C2F800341BF098FB4FF0000A73
S315080032E0072D43D8A9004FF0030909FA01F904F09C
S315080032F003048C401BF086FB2B4BD3F80824544060
S3150800330004EA09045440C3F808441BF07FFB002E66
S3150800331044D0264A0123AB401360B8F1000F3FD0D2
S31508003320234A1360012202FA05F5224AC2F82054FC
S31508003330C7B3A2F6DC321360BDE8F88FA2F1080A1B
S315080033404FEA8A09032303FA09FB00FA09F91BF075
S3150800335059FB154AD2F8041489EA010303EA0B0358
S315080033604B40C2F804341BF051FBB9E74FEA8A0A0E
S315080033704FF0030909FA0AF904F0030404FA0AF4F7
S315080033801BF040FB084BD3F80C24544004EA09040C
S315080033905440C3F80C441BF039FBB8E7064AB9E7B2
S315080033A0064ABEE7064AC6E700C0035010D40350D3
S315080033B014D4035000E0035010E4035014E40350FF
S315080033C024E403502DE9F84F04460E461F4690465E
S315080033D03AB183B301228A4000EB400109012C4B24
S315080033E05A50072E2FD804EB44094FEA091909F158
S315080033F00409DFF8A4A0B3000F2505FA03FB08FAB1
S3150800340003F51BF0FFFA59F80A305D4005EA0B058B
S315080034105D4049F80A501BF0F9FAB8F1000F08D1D7
S315080034206FB3012101FA06F604EB44042401184B94
S315080034301E51BDE8F88F01228A4000EB40010901C0
S31508003440144B5A50CDE704EB44052D010C35DFF833
S315080034504890A6F108039B000F2202FA03FA08FA1D
S3150800346003FB1BF0CFFA55F809308BEA030202EA90
S315080034700A025A4045F809201BF0C8FACDE701218F
S3150800348001FA06F604EB44042401024B1E51D0E768
S3150800349040D0035040E0035030C0035010B50C4BE9
S315080034A04FF48002C3F88020BFF34F8FBFF36F8FAE
S315080034B0084B00245C65FF229A625C602146202046
S315080034C0FEF76CFF21462120FEF768FF10BD00BFFE
S315080034D000E100E00000045029B9044A012303FA78
S315080034E000F010607047024AF8E700BF4010045029
S315080034F04020045010B5044601212020FEF74EFF57
S3150800350001212120FEF74AFF114B01225A60227839
S3150800351012069A606178A27842EA01429A61FF220D
S315080035209A6200229A631A644FF000425A6503F5BC
S3150800353000534FF0FF321A65064A4FF48001C2F86D
S315080035408011E3781B01DBB282F81633116010BDD7
S315080035500000045000E100E070B50C46C3B2012536
S315080035609D40214E06F500531D650968830003F149
S31508003570A04303F588235960637B00EB400106EB03
S3150800358001110B6694F80AC0E37A1B0543EA0C435B
S3150800359094F80CC043EA4C53CB6522F003020A6741
S315080035A01BF037FA736D2B437365237A13B1336CAB
S315080035B02B433364637A1BB10B4A936B2B43936398
S315080035C02379A27942EA0342074B03F500518A613F
S315080035D06679E27942EA064203F58054A2614D63B0
S315080035E09D641BF01CFA70BD0000045010B5C0B2F3
S315080035F0012484401BF00DFA044B5A6D22EA04029A
S315080036005A659C621BF00BFA10BD00BF00000450FF
S3150800361010B5C0B2012484401BF0FBF9084BDB6AE5
S31508003620234206D1064B5B6B34EA030306D000241B
S3150800363000E000241BF0F3F9204610BD0124F9E749
S315080036400000045041B90630084B53F8200020F01A
S31508003650F8004004400C70471230044B53F8200021
S3150800366020F0F8004004400C704700BF008003506B
S3150800367070B50446C2F3062602F0070241B942EACB
S31508003680062242F440220634094B43F8242070BD32
S31508003690114630461BF04EFA054630461BF01CFA1A
S315080036A045EA00251234024B43F82450EFE700BFE1
S315080036B00080035010B40C4689B90F4942EA034208
S315080036C041F820206CB90D49D1F84836012202FA92
S315080036D000F01843C1F848065DF8044B70470849DE
S315080036E0ECE70649D1F848360C30012202FA00F018
S315080036F01843C1F84806EFE74CC6035000C003500C
S315080037007CC60350014BD3F8940070470040005024
S31508003710074B4FF480325A6603F5E6239B69C3F3D9
S315080037208512827003F03F0242701B0B03707047CC
S3150800373000900050064B984204D0C36D43F08003B6
S31508003740C3657047A3F51033C3F8D411F5E700BF76
S3150800375000C0055000F5805301225A6040F6AA635E
S31508003760436100238360C36541F20502C2600361B9
S31508003770C361C36400F50052094991648365094B26
S31508003780984207D0074B984207D000F5005001230E
S315080037904360704700230365F4E700234365F4E7B5
S315080037A0FFFF010000C005500A4B9B6813F0020F8B
S315080037B0FAD1084B5B6813F0020FF5D1054BDB69AC
S315080037C0002BF1D1034B03F5805101224A601A619F
S315080037D0704700BF00800A500A4B5B68012B00D077
S315080037E07047084B5B6813F0010F03D0054BDB6984
S315080037F0002BF6D1034B02221A6103F5005301226E
S315080038005A60EDE700800A5038B50546134B9B68A9
S3150800381013F0020FFAD1114B5B6813F0020FF5D1C2
S315080038200E4BDC69002CF1D15B68012B05D02B7897
S3150800383003B10124094BDC6038BDFFF7CDFF074B08
S315080038409B6813F0020FFAD1044B5B6813F0020F62
S31508003850F5D1024BDB69002BF1D1E8E700800A506D
S31508003860D8B90B78D3B101234A6812B1127843EA62
S31508003870C2034A78A2B1022213438A6812B11278A7
S3150800388043EA82138A786AB104221343CA6812B1DA
S31508003890127843EA4223044A936470470023E3E715
S315080038A00022E9E70022F0E700800A5008B9014B38
S315080038B05964704700900A5008B9014B596470471B
S315080038C000A00A5008B9014B1964704700A00A50B5
S315080038D010B9024B186C70470020704700800A50D8
S315080038E048B911B1012903D07047044BD86C704709
S315080038F0024B186D70470020704700BF00800A50C1
S3150800390040B911B1012903D07047034BDA647047F7
S31508003910014B1A65704700BF00800A5038B5054646
S31508003920054C20461BF0D0FAA5702146034B1868B3
S315080039301DF056FA38BD00BF081F00207849002040
S3150800394038B504468368196801200AF0C1FB00B936
S3150800395038BDA368E26853F822301D68E8B2FFF75D
S31508003960DDFFA3682A46024918680DF0EFFDEFE768
S3150800397034AD020810B504461BF044F8084B1B7812
S3150800398053B9B4F5A05F09D8054B01221A70054C46
S315080039901BF03CF8204610BD0024F9E70024F7E7A1
S315080039A071650020101F0020184B1B680BB1012001
S315080039B0704710B5044641F27430FFF7DBFF034643
S315080039C0124A1060C8B100F1680100F58052C2F8C9
S315080039D0EC120021C2F8F01200F594500830C2F833
S315080039E0F4020120C2F8F802C2F8FC12C2F88812E2
S315080039F003F59453C2F89C3210BDA368044A862185
S31508003A0018680DF0FBFD0020F6E700BF1033002014
S31508003A1040AD02080C2A0AD80C2A60D8DFE802F062
S31508003A2014175F1B20255F5F2A30363C4100FF2AAA
S31508003A3008D1002302283AD0032849D0002840D0CC
S31508003A400120704701207047294B1B68F2E7284B75
S31508003A501B684C33EEE7264B1B6803F66803E9E759
S31508003A60234B1B6803F50763E4E7214B1B6803F543
S31508003A700863DFE71E4B1B6803F595530C33D9E73C
S31508003A801B4B1B6803F598530433D3E7184B1B6885
S31508003A9003F598530933CDE7154B1B6803F59B537C
S31508003AA0C8E7134B1B6803F59B530C33C2E7B1F504
S31508003AB0007F16D20E4A12681A3142F821300020C9
S31508003AC0704712290FD80A4A126842F821307047FF
S31508003AD059B9074A1268C2F86838002070470120A9
S31508003AE0704701207047012070470120704700BFCA
S31508003AF01033002038B504461DF01EF8012802D000
S31508003B000225284638BD002006F0E4FC05460028B4
S31508003B10F7D120461DF0A0F9084B1968084A01F5A7
S31508003B2097510C31204613F013FE0022054B1A60FC
S31508003B30032120461DF004F8E3E700BF10330020F8
S31508003B4049E30108A44B002000B50C286DD8DFE82E
S31508003B5000F00712181E252C333A6C424A525900B7
S31508003B60344800684FF04C0E01EB020CF4455ED861
S31508003B700144104653E02F4800684C304FF01A0EA7
S31508003B80F2E72C48006868304FF4006EECE72948E5
S31508003B90006800F668004FF0080EE5E7254800685B
S31508003BA000F507604FF0100EDEE72248006800F5C2
S31508003BB008604FF4206ED7E71E48006800F5945059
S31508003BC04FF0080ED0E71B48006800F594500830FF
S31508003BD04FF0240EC8E71748006800F598500430DF
S31508003BE04FF0050EC0E71348006800F598500930F5
S31508003BF04FF0560EB8E70F48006800F59B504FF097
S31508003C000C0EB1E70B48006800F59B500C304FF0DE
S31508003C10050EA9E713F8010B01F8010B1046421E21
S31508003C20D2B20028F6D15DF804FB0120FBE701209B
S31508003C30F9E700BF10330020F0B585B00446826866
S31508003C40C368023352F823301D78FFF7ADFE00280B
S31508003C5039D06368E6689B1BEA1C93420BD10A2D90
S31508003C6010D8A36853F826201078721C53F822300F
S31508003C70198800231BE0A368174A802118680DF0ED
S31508003C80BDFC20E0A368154A812118680DF0B6FC32
S31508003C9019E0DA1C3244A76857F8222092F800C0C7
S31508003CA003F110026A4402F80CCC0133DBB2AB42D2
S31508003CB0EFD301AB2A46FFF747FF30B9A368084997
S31508003CC018680DF043FC05B0F0BDA368054A8221CB
S31508003CD018680DF093FCF6E760AD020894AD02088B
S31508003CE0E0AD0208C4AD020810B50446FFF75CFE55
S31508003CF050B16268E368D21A032A06D0A368114A4B
S31508003D00832118680DF07AFC10BDA26852F82300CA
S31508003D10591C52F82110023352F823301A780988B0
S31508003D200078FFF777FE28B9A368074918680DF0E9
S31508003D300DFCE9E7A368054A842118680DF05EFCC6
S31508003D40E2E700BFF8AD0208E0AD020818AE0208C7
S31508003D5010B50446FFF728FE00B910BD084B1868D1
S31508003D60FFF7C8FE28B9A368064918680DF0EEFBE8
S31508003D70F3E7A368044A852118680DF03FFCECE7D1
S31508003D8078490020E0AD020834AE0208F0B599B0D3
S31508003D9004468368196801200AF09AF9002800F099
S31508003DA089800DF1440C574D0FCDACE80F0095E80E
S31508003DB007008CE807000025069501238DF81C30BE
S31508003DC04FF42873ADF81E3002238DF820308DF895
S31508003DD021308DF822308DF823300DF1240C0DF1A9
S31508003DE0440EBEE80F00ACE80F009EE807008CE81A
S31508003DF007000B238DF840308DF841508DF842505E
S31508003E008DF84350A768E56857F8256004223E49AF
S31508003E1030461EF0A1FB002839D101238DF8203049
S31508003E208DF82230A168013551F825301B880B938F
S31508003E300993E3689A1C51F8222012880C920A3AD0
S31508003E400A92DA1C51F822201288ADF81E20626800
S31508003E50D21A042A0ADD043351F823301B78003BB2
S31508003E6018BF0123294A13708DF84330082006F03D
S31508003E7031FBC8B906A9264B186813F0A9FE0146F6
S31508003E80D0B1A368234A18680DF0B8FB12E00222E5
S31508003E90214930461EF060FB0028C3D01F4A202166
S31508003EA038680DF0ABFB05E0A3681D4A22211868A7
S31508003EB00DF0A4FB19B0F0BD154B1A68194B1A6022
S31508003EC0A3681D689DF822000AF05EF804469DF86E
S31508003ED020000AF059F80B9B0C9ABDF81E109DF8A5
S31508003EE0436066B1104E04960391029201930090C6
S31508003EF023460E4A0E4928460DF028FBDAE70D4EF2
S31508003F00F1E700BFB4B2020874AE02087365002078
S31508003F1078490020BCAE02084C3002087CAE020884
S31508003F209CAE0208183300206CAE0208ECAE0208FC
S31508003F30F4AE020864AE020838B504468368196808
S31508003F4001200AF0C5F800B938BD082006F0C2FA03
S31508003F500246002830D16368E1685B1A002B05DD4C
S31508003F60A26852F82120127802B10122012B08DD3D
S31508003F70A0684D1C50F82500007810B142F00202E6
S31508003F80D2B2022B08DDA368023153F821301B7820
S31508003F9013B142F00402D2B20F4B53F822300F4A43
S31508003FA010689847054670B1A368186895B10C4A19
S31508003FB00C490DF0CBFAC7E7A3680B4A222118680B
S31508003FC00DF01CFBC0E7094B01221A700B2008F004
S31508003FD00DFAE9E7064AEBE7F8B202087849002045
S31508003FE06CAF020878AF02089CAE0208730F002077
S31508003FF0ECAE020838B504468368196801200AF051
S3150800400067F800B938BD082006F064FA68B9154B98
S3150800401018681DF04EFB054670B1A3681868FDB117
S31508004020114A12490DF092FAECE7A368104A2221C8
S3150800403018680DF0E3FAE5E70E4B02221A708020A5
S3150800404008F0D4F90C4B1B88102BE6D10B4B1B78C8
S315080040500F2BE2D1094B18221A7070225A70DCE72E
S31508004060074ADEE7784900206CAF020878AF0208F5
S315080040709CAE0208730F0020220F0020480900207A
S31508004080ECAE020838B504468368196801200AF0C0
S315080040901FF800B938BD082006F01CFA68B9154B98
S315080040A018681DF008FB054670B1A3681868FDB1CD
S315080040B0114A12490DF04AFAECE7A368104A222180
S315080040C018680DF09BFAE5E70E4B02221A70E020FD
S315080040D008F08CF90C4B1B88102BE6D10B4B1B7880
S315080040E00F2BE2D1094B18221A7070225A70DCE79E
S315080040F0074ADEE7784900206CAF020878AF020865
S315080041009CAE0208730F0020220F002048090020E9
S31508004110ECAE02082DE9F04385B004468268C36810
S3150800412052F823100D78591C52F8211091F8008086
S31508004130991C52F821100F78D91C52F821100E78C4
S315080041404168C91A04293ADD043352F8233093F832
S315080041500090B9F1000918BF4FF00109002D31D1BF
S315080041602946B8F1000F01D041F004010FB141F022
S3150800417002010EB141F00101B9F1000F01D041F081
S3150800418020011A4B18681DF0EFFAE8B9A3681868F9
S315080041900DB3174AB8F1000F1FD0154BFFB11449DC
S315080041A0FEB1134CB9F1000F1DD0114D02950194C3
S315080041B0009110490DF0CAF905B0BDE8F0834FF03B
S315080041C00009CBE70821CCE7A3680B4A2321186826
S315080041D00DF014FAF0E7094ADCE7084BDEE7074971
S315080041E0DEE7064CDEE7054DE0E700BF784900202C
S315080041F0ECAE0208ACAF020884AF02086CAF020846
S3150800420038B504468368C26853F822301D78291EDB
S3150800421018BF01210A4B18681DF082FA38B9A3683D
S3150800422018685DB1074A08490DF090F938BDA368CA
S31508004230064A242118680DF0E1F9F7E7044AF2E77F
S3150800424078490020ECAE020820B00208FCAF02084C
S315080042506CAF020838B504468368C26853F8223042
S315080042601D78291E18BF01210A4B18681DF048FA47
S3150800427038B9A36818685DB1074A08490DF066F9A8
S3150800428038BDA368064A242118680DF0B7F9F7E780
S31508004290044AF2E778490020ECAE020858B0020852
S315080042A034B002086CAF020810B504468068E368AB
S315080042B050F8232011886268D21A012A11DD0133C9
S315080042C050F823301A78084B18681DF007FAA368C7
S315080042D01C6803F03BFB0246044920460DF036F9FC
S315080042E010BD0022EFE700BF784900206CB0020835
S315080042F010B504468068E36850F823201188626880
S31508004300D21A012A11DD013350F823301A78084BE6
S3150800431018681DF0E9F9A3681C6803F017FB024644
S31508004320044920460DF012F910BD0022EFE700BF40
S315080043307849002080B0020810B582B004460023F0
S315080043400BE0A168E2681A4451F82220117803F1BB
S3150800435008026A4402F8081C0133072BF1DD63687A
S31508004360E2689B1A082B14DDA368083253F822303A
S315080043701A786946084B18681DF0BCF9A3681C68CA
S3150800438003F0E4FA0246054920460DF0DFF802B0CC
S3150800439010BD0022EDE700BF7849002098B002085A
S315080043A02DE9F0418AB0044601AD474E0FCE0FC540
S315080043B00FCE0FC533682B6000273E4638E0A0684D
S315080043C073180022114650F8230019F023F883B217
S315080043D03DE0A0680B440022114650F8230019F06E
S315080043E019F883B247E0A0680B440022114650F83A
S315080043F0230019F00FF880468E4652E0EB00C3F111
S31508004400200CA3F1200028FA03F20EFA0CFC42EA6B
S315080044100C022EFA00F0024328336B440B4403F8CF
S31508004420182C01310729E9DD0336F6B20137FFB248
S31508004430022F38D832466368E1685B1A9E4232DA40
S31508004440012EBCD8A3680A4453F822301B883D467F
S315080044500AAA02EB470222F8243C731CDBB2626804
S31508004460E168521A93421EDA012BB2D8A2680B44AD
S3150800447052F823301B880AAA02EB450222F81E3C92
S31508004480B31CDBB26268E168521A93420BDA012B5D
S31508004490A9D8A2680B4452F82330B3F800804FF02D
S315080044A0000E0021BEE701A9084B18681DF014F993
S315080044B0A3681C6803F04AFA0246054920460DF02F
S315080044C045F80AB0BDE8F081D0B202087849002064
S315080044D0B0B0020808B58368C26853F8222012688B
S315080044E003490A60034918680DF030F808BD00BF93
S315080044F014330020C8B0020830B583B00446836878
S31508004500C26853F822301D682A464FF0FF31154B12
S3150800451018681DF015F9B8B905F00201C5F340038E
S31508004520114A1370A368186815F0010F13D00F4AC3
S3150800453099B10E4B15F0040F11D00C4900910C4996
S315080045400DF004F803B030BDA3680A4A1F211868A5
S315080045500DF054F8F6E7084AEAE7074BEAE7064992
S31508004560ECE700BF78490020726500206CAE0208AF
S31508004570F0B00208DCB0020864AE020830B583B0B9
S3150800458004468368C26853F822301D682A464FF0ED
S31508004590FF31164B18681DF0E5F8B8B915F0010398
S315080045A01BD00221124A1170A2681068BBB1114AC9
S315080045B015F0020F15D00F4B15F0040F13D00D4947
S315080045C000910D490CF0C2FF03B030BDA3680B4A39
S315080045D01F2118680DF012F8F6E70121E2E7084AEC
S315080045E0E6E7074BE8E70649EAE700BF784900200F
S315080045F0730F00206CAE020840B102082CB1020805
S3150800460064AE0208F8B504468268C36852F82310F7
S315080046100E78013352F823301D782F1E18BF012754
S31508004620311E18BF01210F4B18681DF0ADF810B9DF
S315080046305EB10D4E00E00D4E39460A4B18681DF066
S31508004640B3F820B95DB1084B02E0094EF4E7074B11
S31508004650A0683246074900680CF078FFF8BD044B9D
S31508004660F6E700BF78490020ECAE0208E0E8020849
S315080046706CAF020878B1020838B504468568C36885
S3150800468055F823201178052919D80020844661B1E8
S315080046906268D21A022A19DD5A1C55F822201078A7
S315080046A0023355F8233093F800C0A9B9454B1B8847
S315080046B0013303F07F0301224FF0000C74E00B4630
S315080046C0414A1F2128680CF099FF77E03F4A1F21CD
S315080046D028680CF093FF71E001290BD0394B1A8832
S315080046E0043AC2F30A028B1E032B4CD8DFE803F008
S315080046F01F2E3847011E18BF0121BCF1000C18BF38
S315080047004FF0010C88B102222E4B1B88023B12FA8D
S3150800471083F3C3F30A034FEACC2242EA0132134376
S3150800472093FAA3F31B0C0222C6E70422ECE700F077
S315080047301F000CF0030CD20142EAC04242EACC0345
S3150800474005293CD093FAA3F30422B5E7003818BF2D
S3150800475001200CF003035B0343EAC0331343EFE77E
S31508004760003818BF0120BCF1000C18BF4FF0010C2F
S315080047704FEACC2C4CEA003042EA0003E0E7120686
S3150800478002F0FE43DCE70023DAE74FEACC0EFF210E
S3150800479001FA0EF1194021FA0EF10D4800F80C1035
S315080047A00CF1010C5FFA8CFC6245EED8A068094949
S315080047B000680CF0CBFE204604F0B6FA38BD042299
S315080047C07AE700BF220F002090B10208A8B10208BC
S315080047D048090020C4B1020808B5C3684360836865
S315080047E0024A1F2118680CF009FF08BDD8B1020853
S315080047F008B5C36843608368024A1F2118680CF02D
S31508004800FDFE08BDD8B102082DE9F04F99B004465F
S31508004810BE4B1868002840F08580BD4B1D78002DDA
S3150800482000F06A82BB4B1E7809A920461CF065FD7C
S31508004830BDF82630B21C934277D3192B0BD919230E
S31508004840ADF82630BDF82830182B04D91923ADF851
S31508004850283000230C93BDF828200B990EA81DF0CC
S315080048608BFE0C9949B1BDF82620BDF82800121A0E
S3150800487092B20EAB18441DF07FFE731CDBB206F134
S3150800488060026A4412F828CC1FFA8CF00CF0070272
S31508004890052A4FD0B21CD2B260336B4413F8283CB9
S315080048A04CEA03239C4603F44056990A01F0380162
S315080048B0580A00F006000143C3F3801001439648E6
S315080048C030F811E04FF6FF718E456BD0B6F5005FF4
S315080048D06DD0511CC9B260326A4412F8287CB6F50C
S315080048E0005F6AD05FEA1E3000F0FC810EF00F020E
S315080048F0CEF303131A44CEF30323134451FA83F178
S31508004900C9B20844BDF82630984200F3F08101F197
S3150800491060030DEB030111F8283CAA2B14BF0023F2
S315080049200123F7E11CF0AAFD77E77C4A936A013375
S315080049309362F3E11CF0080F32D0B21CD2B2603396
S315080049400DEB030111F8280C4CEA0020810901F44B
S315080049500271C30903F010031943430A03F0200345
S315080049601943830803F4A0731943830103F44063CE
S315080049701943000200F44040014341F4005343F058
S31508004980050311F44C418DD0B1F5084F8AD0B1F525
S315080049900C4F87D0B1F5484F84D083F0400381E7A8
S315080049A01A46D3E75D4A936A01339362B6E113F474
S315080049B0807F8ED01146002791E7594AB2F84020E9
S315080049C0ADF8042000228DF806200EF00F068DF8AB
S315080049D0046008467218BDF82680424519DC7EB187
S315080049E04A1C6030684410F8280C8DF8050002311E
S315080049F0C9B218A850FA82F212F8282C8DF80620A7
S31508004A00CEF303128DF80C200A44904506DB0122EA
S31508004A1016E0424A936A013393627FE13F4A936AFA
S31508004A20013393627AE1481C6031694411F8289C85
S31508004A3002F16001694401F8549C0132D2B2C1B254
S31508004A409DF80C009042EED2CEF303298DF808901B
S31508004A5009EB010290451DDBB9F1000F11D04A1C84
S31508004A6001F1600AEA441AF828AC8DF809A0023167
S31508004A70C9B20DF1600A5AFA82F212F8282C8DF89A
S31508004A800A204FEA1E3E8DF818E08E44F04506DBF4
S31508004A90012218E0214A936A013393623EE11F4AD4
S31508004AA0936A0133936239E101F1010E6031694479
S31508004AB011F8288C02F16001694401F8488C01322A
S31508004AC0D2B25FFA8EF19DF818E09645ECD203F45F
S31508004AD0A0724FEA1C1C0CF4406C42EA0C0C1A013A
S31508004AE002F440424CEA020C4CF4005848F0020822
S31508004AF0BEF1000F16D09DF81920AA2A01D000256C
S31508004B0011E04CF4005848F012080CE01433002069
S31508004B1072650020730F002018B30208A00F00204A
S31508004B20B4B2020800258C4A117801F1010C01F192
S31508004B3060026A4402F8288C8A1CD2B24FEA182A04
S31508004B400DF1600B5BFA8CFC0CF828AC13F4807F33
S31508004B5005D1CB1C60326A4402F8287CDAB24FEAE7
S31508004B60982303F038034FEA582707F006073B4314
S31508004B70C8F3801843EA0808784B33F818804FF6CC
S31508004B80FF73984534D018F00F0F14D0B9F1000F01
S31508004B9033D0531C9DF809C002F160076F4407F82B
S31508004BA028CC0232D2B29DF80A700DF1600C5CFA7C
S31508004BB083F303F8287C18F0F00F47D118F4706FC8
S31508004BC057D0002E44D1B9F1000F66D0531C9DF87A
S31508004BD0097002F160066E4406F8287C0232D2B2E9
S31508004BE09DF80A6018AF57FA83F303F8286C40E07B
S31508004BF05B4A936A0133936290E096B1531C9DF821
S31508004C0005C002F160076F4407F828CC0232D2B219
S31508004C109DF806700DF1600C5CFA83F303F8287CA6
S31508004C20C9E74F4A936A0133936277E0571C03F149
S31508004C30600CEC441CF848CC60326A4402F828CC74
S31508004C400133DBB2FAB29E45F0D2B7E70123FAE7A1
S31508004C50531C9DF8057002F160066E4406F8287C20
S31508004C600232D2B29DF8066018AF57FA83F303F8FA
S31508004C70286C18F4704F15D1022924D0531C8DF8CE
S31508004C8038300EA920461CF0A4FD28BB002D45D0BF
S31508004C90334A136A0133136240E0314A936A013397
S31508004CA093623BE001239842E6D3561C03F1600762
S31508004CB06F4417F8547C60326A4402F8287C013342
S31508004CC0DBB2F2B2EFE718238DF8383092FAA2F386
S31508004CD01B0E8DF83930D4E705B3214A536A0133E0
S31508004CE053621BE01E4A936A0133936216E01C4A1C
S31508004CF0936A0133936211E015A920461CF066FDFC
S31508004D0078B99DF85C30032B10D09DF85430AA2B47
S31508004D1012D00023134A12789A420FD119B0BDE86F
S31508004D20F08F0F4A936A01339362F7E79DF8543080
S31508004D30AA2BEAD10123EDE70123EBE720461CF075
S31508004D4043FD20B9064A136A01331362E6E7044AAB
S31508004D50536A01335362E1E7730F002018B3020860
S31508004D60A00F00207365002038B504468368C26822
S31508004D7053F822301D782946084B18681CF04EFD5A
S31508004D8030B9A3682A46064918680CF0DFFB38BD17
S31508004D90A368044918680CF0D9FBF8E7784900209D
S31508004DA018B2020824B2020808B5836802491868CE
S31508004DB00CF0CCFB08BD00BF3CB2020808B58368FE
S31508004DC0024918680CF0C2FB08BD00BF5CB20208B5
S31508004DD010B582B004468368C26853F822301B684F
S31508004DE0019301A9094B18681BF061FF38B9A3683C
S31508004DF0019A074918680CF0A9FB02B010BD0146D4
S31508004E00A368044A18680CF0F9FBF6E7784900200D
S31508004E1088B2020898B20208F8B505467AB900239E
S31508004E2003700BE0325D084928460DF013F8054477
S31508004E300134A742F6DC002305F8013CF8BD0E460E
S31508004E4017460024F5E700BF98B3020810B50446D4
S31508004E50074B18681CF0D9FAA3681B6828B1054ADD
S31508004E60054918460CF072FB10BD044AF8E700BF66
S31508004E7078490020ECAE0208A0B302086CAF02081D
S31508004E8010B504468368C26853F822301968003999
S31508004E9018BF0121044B18681CF0B3FAE368636075
S31508004EA02046FFF7D3FF10BD784900202DE9F041D1
S31508004EB084B083681D4918680CF0FEFA002425E0C2
S31508004EC01B4A03921B4A02921B4A019200912A46E8
S31508004ED0214616480CF018FB0135032D15DC4FEA60
S31508004EE0840805EB8403154F3E19B278144901EB83
S31508004EF0C3011148FFF790FF3B5DB178114A424460
S31508004F00525D002ADCD0104ADBE70134012C0ADCAA
S31508004F100A4B23449A780D4901EBC4010548FFF76B
S31508004F207BFF0025D9E704B0BDE8F081B4B30208D9
S31508004F306CAF02082433002054330020C433002009
S31508004F40843300201C330020ECAE020848080020F9
S31508004F5070B504464022002128481DF034FB284B32
S31508004F6000221A605A60274B4FF0FF321A605A60C7
S31508004F709A60DA60A668E56856F825301A68224B02
S31508004F805A606068401B042802DC013800230FE0E1
S31508004F900420FBE75A1C2A4456F8221003EBD37266
S31508004FA091F800C0184901EB620282F802C0013389
S31508004FB083420FDA13F0010FECD15A1C2A4456F833
S31508004FC0221003EBD372521091F800C00E4901F873
S31508004FD002C0ECE70C490D4B18681CF014FA28B906
S31508004FE0E36863602046FFF761FF70BDA368084A5F
S31508004FF0302118680CF002FBF7E700BF8433002065
S315080050001C33002048080020C433002078490020BB
S31508005010F8B3020870B582B08668C16856F82130C0
S315080050201D78012D0AD8044643685B1A092B0BDC48
S315080050304FF0FF3300930193002215E01B4A3121FC
S3150800504030680CF0DBFA28E0194A322130680CF097
S31508005050D5FA22E0531CC81856F820000078083202
S315080050606A4402F8080C1A4663685B1A013B9342C5
S31508005070F0DC6A4629460F4B18681CF0B6F970B979
S315080050800D4B03EBC50502AB13E9030085E80300E6
S31508005090E36863602046FFF709FF02B070BDA368A6
S315080050A0064A332118680CF0A9FAF6E724B4020870
S315080050B040B40208784900204808002060B4020875
S315080050C070B584B004468668C06856F820301978EA
S315080050D0431C56F823301A7802EB810501290AD8B1
S315080050E0032A08D863681B1A0A2B0BDC00230293D1
S315080050F003939C461AE0204A312130680CF07EFA68
S3150800510004B070BD1D4A322130680CF077FAF7E713
S315080051100CF10203034456F8233093F800E00CF12F
S3150800512010036B4403F808EC0CF1010C63681B1AB6
S31508005130023B6345ECDC124B03EB81039B5C00935B
S3150800514002AB104800681CF052F968B90E4B03EB25
S31508005150C50504AB13E9030085E80300E36863604B
S315080051602046FFF7A3FECBE7A368084A3321186851
S315080051700CF044FAC4E700BF80B4020840B4020841
S315080051801C330020784900208433002060B40208CC
S31508005190F0B585B004468268C36852F823100E78C5
S315080051A0591C52F821100F78023352F823301D7813
S315080051B0003D18BF01253B4632462946124800687D
S315080051C01CF01DF9B8B9114B03EB8603DD55A3682E
S315080051D018680F4B9A5D33449B789DB10D4903912E
S315080051E00D490291019300923B4632460B490CF059
S315080051F0ADF905B0F0BDA368094A342118680CF06A
S31508005200FDF9F6E70749EAE7784900201C3300204C
S31508005210C4330020ECAE020854330020CCB4020894
S31508005220A8B402086CAF020870B58CB00446012019
S31508005230384B1870A368196808F04AFF00283FD051
S31508005240A668E36856F823500422334928461DF019
S3150800525083F9002836D12F4B01221A719A7100233F
S31508005260059306930793089309930A930B93A268E9
S31508005270E368591C52F821100988079105910233F1
S3150800528052F823301B8808930A2B01D90A3B069348
S31508005290A268E368033352F823301B881D4E7380D7
S315080052A01E4D05A9286812F075F8314628681BF0C6
S315080052B0D1FF0146B8B1A368194A18680CF09EF9DF
S315080052C00CB070BD0222174928461DF045F920B9D1
S315080052D0104B02221A719A71C1E7134A20213068CD
S315080052E00CF08CF9ECE7A3681E680A4D287908F0DB
S315080052F04BFE0446A87908F047FE03466A880292E0
S31508005300089A0192079A00922246084930460CF0FC
S315080053101DF9D5E7CC33002074AE02087849002081
S3150800532008B502084C3002087CAE020838B50208F7
S31508005330F0B583B00646104F38681BF09BFF05464C
S3150800534038681BF0A7FF044638681BF0A7FF01461C
S31508005350B368186855B1094A54B1094B51B108499F
S31508005360009108490CF0F2F803B0F0BD064AF3E7DD
S31508005370064BF3E70549F3E778490020ECAE020847
S3150800538098B50208A0B502086CAF02088CB50208E9
S3150800539010B584B00446104B1B88ADF80C300022BB
S315080053A08DF80420ADF80620ADF80830ADF80A30BF
S315080053B001A90A4B18681BF04DFF30B9E368636012
S315080053C02046FFF7B5FF04B010BD0146A368044A9E
S315080053D018680CF013F9F1E708B6020878490020B6
S315080053E0D4B5020870B504468268C36852F823101B
S315080053F00978013352F823301E78094D003918BF51
S31508005400012128681BF044FF311E18BF01212868B6
S315080054101BF042FFE36863602046FFF789FF70BD13
S315080054207849002008B58168C36851F823201278A6
S31508005430013351F823301B78003A18BF01220A4875
S315080054400270003B18BF012308480370086832B190
S31508005450074A33B1064B07490CF078F808BD064AE7
S31508005460F7E7054BF7E700BF826500208365002054
S315080054706CAE0208ECB5020864AE020810B5044624
S31508005480074B18681CF0CEF9A3681B6828B1054AB3
S31508005490054918460CF05AF810BD044AF8E700BF4B
S315080054A078490020ECAE02080CB602086CAF020878
S315080054B010B504468368C26853F822301B787BB15E
S315080054C0032005F007F820B90A4B18681CF0B3F951
S315080054D00AE0A368084A222118680CF08FF808E049
S315080054E0044B18681CF0A0F9E36863602046FFF7D0
S315080054F0C5FF10BD784900209CAE020810B50446C9
